:020000040800F2
:100000000000032041430008FD220008FF220008F1
:100010000123000803230008052300080000000056
:10002000000000000000000000000000072300089E
:1000300009230008000000000B2300080D2300081E
:100040009543000895430008954300089543000830
:100050009543000895430008954300089543000820
:100060009543000895430008954300089543000810
:100070009543000895430008954300089543000800
:1000800095430008954300089543000895430008F0
:1000900095430008954300089543000895430008E0
:1000A00095430008954300089543000895430008D0
:1000B00095430008954300089543000895430008C0
:1000C00095430008954300089543000895430008B0
:1000D00095430008954300089543000895430008A0
:1000E0009543000895430008954300089543000890
:1000F0009543000895430008954300089543000880
:10010000954300089543000895430008954300086F
:10011000954300089543000895430008954300085F
:10012000954300089543000895430008954300084F
:0C01300095430008954300089543000823
:100140000348044B834202D0034B03B11847704766
:100150009800002098000020000000000548064993
:100160000B1AD90F01EBA301491002D0034B03B1C5
:1001700018477047980000209800002000000000F9
:1001800010B5064C237843B9FFF7DAFF044B13B1DF
:100190000448AFF300800123237010BD98000020B5
:1001A000000000009843000808B5044B1BB1044947
:1001B0000448AFF30080BDE80840CFE7000000002E
:1001C0009C0000209843000870B50D4E0D4D761B25
:1001D000B61006D00024013455F8043B9847A642D7
:1001E000F9D1094E094D761B04F0D6F8B61006D0A9
:1001F0000024013455F8043B9847A642F9D170BD5C
:10020000A0450008A0450008A4450008A045000836
:10021000F0B4860746D0541E002A3CD0CAB203462A
:1002200002E014F1FF3436D303F8012B9D07F8D117
:10023000032C29D9CDB245EA05250F2C45EA054501
:1002400033D9A4F11006360903F1200707EB06178E
:1002500003F1100242E9045542E902551032BA4254
:10026000F8D1721C14F00C0F03EB021204F00F060D
:1002700013D0331F23F003030433134442F8045B09
:100280009342FBD106F003042CB1C9B21C4403F81D
:10029000011B9C42FBD1F0BC704734461346002C36
:1002A000F3D1F8E714460346C2E71A462646E0E7CC
:1002B0000EB410B5044683B008B1836963B106A8D3
:1002C00003460190059AA168204600F0A7FA03B002
:1002D000BDE8104003B0704700F088F9EFE700BFB9
:1002E0000FB410B50B4B1C6882B00CB1A36963B19D
:1002F00005A803460190049AA168204600F08EFAF2
:1003000002B0BDE8104004B07047204600F06EF91E
:10031000EEE700BF08000020000000000000000021
:1003200000000000000000000000000000000000CD
:1003300000000000000000000000000000000000BD
:1003400090F800F06DE9024520F007016FF0000C15
:1003500010F0070491F820F040F049804FF00004BD
:100360006FF00700D1E9002391F840F000F1080098
:1003700082FA4CF2A4FA8CF283FA4CF3A2FA8CF3D0
:100380004BBBD1E9022382FA4CF200F10800A4FA37
:100390008CF283FA4CF3A2FA8CF3E3B9D1E904238B
:1003A00082FA4CF200F10800A4FA8CF283FA4CF3C2
:1003B000A2FA8CF37BB9D1E9062301F1200182FA7C
:1003C0004CF200F10800A4FA8CF283FA4CF3A2FA82
:1003D0008CF3002BC6D0002A04BF04301A4612BA90
:1003E000B2FA82F2FDE8024500EBD2007047D1E993
:1003F000002304F00305C4F100004FEAC50514F022
:10040000040F91F840F00CFA05F562EA05021CBFF2
:1004100063EA050362464FF00004A9E70020704735
:10042000014900F029B900BFAD1200080020704753
:1004300070B54A1E682505FB02F50E4605F17401EC
:1004400000F044F9044640B100210C30666005F12B
:1004500068022160A060FFF7DBFE204670BD00BF90
:100460001E4B70B51D68AB69064643B34835D5E9E8
:100470000134013B05D51EE0013B5A1C04F1680420
:1004800019D0B4F90C20002AF6D10025144B65666A
:10049000C4E90055A560C4E90455A5612946E36097
:1004A000082204F15C00FFF7B3FEC4E90D55C4E96E
:1004B0001255204670BD2C682CB12546D7E728463A
:1004C00000F010F8D2E704213046FFF7B1FF0446F0
:1004D00028600028F1D10C233360EAE7DC430008F0
:1004E0000100FFFF2DE9F84F334B34491A68816250
:1004F00090424FF00003C0E91233036504BF0123AB
:1005000083610546FFF7ACFF68602846FFF7A8FF48
:10051000A8602846FFF7A4FF6E68E8600024042363
:10052000F3607466C6E90044B460C6E90444B4618B
:10053000214606F15C000822FFF76AFEDFF888B06A
:10054000AF68DFF888A0DFF88890DFF888801C4B60
:10055000C6F83080C6E9086BC6E90AA92146FB60E7
:1005600008227C66C7E90044BC60C7E90444BC615A
:1005700007F15C00FFF74CFEEE68124BC7F83080C5
:10058000C7E9087BC7E90AA92146F3607466C6E992
:100590000044B460C6E90444B46106F15C0008227A
:1005A000FFF736FE0123C6E9086BC6E90AA9C6F8BB
:1005B0003080AB61BDE8F88FDC43000821040008FF
:1005C0000900010012000200E10E0008090F0008F6
:1005D000490F0008690F0008024B0349186800F032
:1005E0004BB800BFDC430008AD120008836903B9B3
:1005F00078E77047704700BF704700BF704700BF83
:10060000704700BF024B0349186800F00FB800BFE5
:10061000080000201D040008024B0349186800F080
:1006200005B800BF080000202D0400082DE9F041A6
:1006300010F148071BD088460026D7E90154013D38
:100640000FD4A389012B05F1FF3506D9B4F90E307B
:100650000133204601D0C04706436B1C04F16804F7
:10066000EFD13F68002FE8D13046BDE8F0813E462B
:100670003046BDE8F08100BF2DE9F84310F148078E
:100680001FD0884606464FF00009D7E90154013DC6
:1006900011D4A389012B05F1FF3508D9B4F90E3027
:1006A00001332146304602D0C04749EA00096B1C9D
:1006B00004F16804EDD13F68002FE6D14846BDE85B
:1006C000F883B9464846BDE8F88300BFF8B5CD1CAD
:1006D00025F0030508350C2D38BF0C25002D0646E6
:1006E00033DBA94231D82A4F01F08CF93A6852B174
:1006F00013685B1B04D43FE023685B1B29D52246AB
:100700005468002CF8D1796800293BD0294630463E
:1007100000F0D4FB431C28D0C41C24F00304A042E6
:1007200005D0211A304600F0C9FB01301DD02560EC
:10073000304601F069F904F10B0020F00700231D99
:10074000C21A01D01B1AA350F8BD0C22326000203F
:10075000F8BD0B2B05D8A242636811D05360E7E7C0
:10076000144623601C442560E2E70C2330463360C6
:1007700001F04AF90020F8BD0B2BF1D8536814465C
:100780003B60D5E7304600F099FB7860BEE700BFDC
:10079000B40000209368013B002B936011DA10B481
:1007A0009469A34209DB0A2907D01368581C10601A
:1007B000197008465DF8044B70475DF8044B00F073
:1007C000D7BB1368581C106019700846704700BFEB
:1007D0009BB1F8B513440F4606465D1E541E01E05A
:1007E000AC4208D03A4614F8011F3046FFF7D2FF5A
:1007F000431CF5D1F8BD0020F8BD0020704700BFB4
:10080000936810B5144613B95360184610BD00F034
:100810008FFD0023C4E9013310BD00BF2DE9F04F67
:100820009FB08B4690461C46039018B18369002BFD
:1008300000F0B780A24B9B4500F0B980A14B9B45CF
:1008400000F0C780A04B9B4504BF039BD3F80CB0BE
:10085000BBF80C30180740F1B280DBF81030002BE9
:1008600000F0AD8030238DF8323098F800300594D8
:10087000002120220B918DF83120944E0127002B6E
:1008800000F08780252B00F01581454603E0252BDD
:1008900000F0A38025466B786C1C002BF7D1B4EBDD
:1008A000080A76D04246534659460398FFF790FF10
:1008B00001306ED00B9B6A7853440B93002A68D0AA
:1008C00000234FF0FF3201340693CDE908338DF851
:1008D0005B301C93079205E0069A07FA03F3134373
:1008E0002C4606932546052215F8011B304600F0DC
:1008F00037FFAA46831B0028EED1069BD90644BFCA
:1009000020228DF85B2021781A0744BF2B228DF816
:100910005B202A2966D1059A1168043200290592C4
:10092000C0F29D8009916178A51C2E2973D0684C76
:100930000322204600F014FF002800F08680001BF0
:10094000069B402404FA00F00343069305F10108D6
:10095000297860488DF83010062200F001FF002849
:1009600000F083805C4B002B72D005AB00935A469D
:100970005A4B039806A9AFF300808146B9F1FF3FB7
:1009800007D00B9B4B440B9398F80030002B7FF45F
:1009900079AFBBF80C305B0618D40B981FB0BDE8DC
:1009A000F08FFFF723FE464B9B457FF447AF039B39
:1009B000D3F804B0BBF80C3018073FF54EAF5946DA
:1009C000039800F04BFB00283FF44CAF4FF0FF3092
:1009D000E4E7039BD3F808B03AE7B4EB080A3FF426
:1009E0006FAF5FE7A1F13002092A88BFA2469CD809
:1009F000099B01E02C460135297803EB830302EBC8
:100A00004303A1F13002092AAA46F3D92E2904F1A1
:100A1000020509938BD19AF801102A292FD1059B41
:100A20009AF802101A6807920433002A05930AF113
:100A300003050AF1020338DB254C032220469A46BF
:100A400000F08EFE00287FF47AAFA84655467FE777
:100A5000059B073323F007030833059391E74942C9
:100A600043F00203099106935DE705AB00935A46F4
:100A70001A4B039806A900F0D5F881467EE7A1F14C
:100A800030020023092A079301D915E055466978F9
:100A900003EB830302EB4303A1F13002092A05F1C2
:100AA000010AF3D90235079341E74FF0FF329A4626
:100AB00007923CE7444603E7AA46013537E700BF03
:100AC0002044000800440008E04300085C4500089A
:100AD000644500086845000800000000D1070008D0
:100AE00010B4044C13460A46014620685DF8044BD6
:100AF000FFF794BE080000202DE9F0470C46914610
:100B00000A698968DDF820808A42B8BF0A46C9F8B8
:100B1000002094F8431006461F4611B10132C9F86F
:100B20000020236899065CD5D9F800200232C9F864
:100B30000020236813F0060F19461DD1E1688A1AB8
:100B4000002AD8BF194617DD04F1190A002505E06F
:100B5000E368D9F800209B1AAB420CDD0123524612
:100B600039463046C047013005F10105F0D14FF05C
:100B7000FF30BDE8F087216894F84330003318BF98
:100B800001238A060AD5E1185A1C302081F8430057
:100B9000224494F8451082F84310023304F14302D2
:100BA00039463046C0470130E1D02368A268216948
:100BB00003F00603042B1DD08A4226DD4FF0000906
:100BC000521A91441A34002501E04D451DDA0123E3
:100BD000224639463046C047013005F10105F4D1BF
:100BE000C5E713F0060F13D094F84330003318BF55
:100BF0000123D3E7D9F80000E3688A42A3EB00039E
:100C000023EAE379DCDC002BDCDC0020BDE8F087A4
:100C1000E168D9F800208A1A002AD8BF194693DC67
:100C2000AAE700BF2DE9F0430C46097E85B06E2986
:100C3000064617460C98984604F1430E6DD039D9F4
:100C4000732900F0F68044D9752900F004817829D1
:100C500040F0118178232268DFF858C284F84530CB
:100C60000168150651F8043B016040F1A180D107ED
:100C700044BF42F020022260002B00F0938010223B
:100C8000002184F843106068A0600028C0F2C8808A
:100C9000216821F004012160002B40F0A38000288E
:100CA00040F0C0807546082A00F0AC80AEEB05032A
:100CB000236141E0632900F0E5801AD8002938D08B
:100CC000582940F0D88084F845102268DFF8E8C140
:100CD000C6E76F2900F0BF80702940F0CC80226801
:100CE000DFF8D0C142F020027823226084F845303A
:100CF000B6E7642902D0692940F0BD802268036804
:100D0000110603F1040557D5196805600B46002943
:100D100059DBDFF8A4C10A22B5E7036822686169DC
:100D20001D1D056015061B6802D4500600F1BD802C
:100D30001960002375462361CDF800803B4603AA65
:100D400021463046FFF7D8FE013020D02A462369DD
:100D500039463046C047013019D022680398E3680D
:100D6000920719D51A1A002A16DD04F1190900256F
:100D700004E0E36803981A1AAA420DDD01234A46EB
:100D800039463046C047013005F10105F1D14FF039
:100D9000FF3005B0BDE8F0839842B8BF184605B0F3
:100DA000BDE8F083226822F020022260102267E76B
:100DB000500648BF9BB25AE75106A5D5B3F900309B
:100DC00005601946A3E76168A1602D200029C3F1E1
:100DD000000384F8430002DB22F004022260DFF803
:100DE000D8C00A22754600E00B46B3FBF2F102FBC5
:100DF000113093421CF8000005F8010DF4D2082AC6
:100E00007FF454AF2368DB077FF550AF6268236936
:100E10009A423FF74BAF302305F8013C013D45E7CF
:100E2000002BDFD19CF8003084F8423004F14205F9
:100E300039E703686268191D01601D6800212846B2
:100E400000F08EFC002832D0401B6060206100233F
:100E500084F8433070E72268036812F0800F03F1D2
:100E600004051AD01B6805606F290CBF08220A22EE
:100E7000DFF844C004E7012384F84210236104F141
:100E80004205E4E703681A68191D0123016004F1B3
:100E9000420584F842202361D9E712F0400F0DBFCC
:100EA0001B6805601B880560DEE7198041E7606804
:100EB000CCE700BF844500087045000838B5074CF2
:100EC000002305460846236000F088FE431C00D03E
:100ED00038BD2368002BFBD02B6038BD54020020A6
:100EE00010B50C46B1F90E1000F00CFE002803DB23
:100EF000636D0344636510BDA38923F48053A3810C
:100F000010BD00BF002070472DE9F0411646B1F931
:100F10000C201F46D3050C460546B1F90E1009D426
:100F200022F48052A2813B4632462846BDE8F04179
:100F300000F07EB80022022300F07EFBB4F90C2002
:100F4000B4F90E10ECE700BF10B50C46B1F90E1065
:100F500000F072FBA389421C0EBF23F4805343F4BC
:100F600080536065A38110BDB1F90E1000F0F6B892
:100F7000F8B50D461446064608B1836943B3254BC0
:100F80009C422AD0244B9C4229D0244B9C4208BF2F
:100F9000F468A389A269A2601A0722D5236903B362
:100FA00022686169D31AEDB299422F4629DD0133D7
:100FB000A168501C0139A1602060157062699A42D5
:100FC00016D0A389DB0701D50A2D11D03846F8BD0C
:100FD000FFF70CFB0F4B9C42D4D17468D9E7B4687F
:100FE000D7E72146304600F039F838B92369D7E70A
:100FF0002146304600F05AF90028E7D04FF0FF377D
:10100000E4E72146304600F051F90028F6D1226885
:101010000123CDE72044000800440008E043000815
:10102000024B0A4601461868FFF7A2BF08000020DD
:1010300070B50D46084C114606461A462846002350
:10104000236003F0F7F8431C00D070BD2368002B29
:10105000FBD0336070BD00BF540200203B4B70B525
:101060001D6806460C460DB1AB69DBB1384B9C429E
:101070001ED0384B9C424AD0374B9C4208BFEC688C
:10108000B4F90C2093B2190718D5206908B313F0EE
:1010900001022CD0636900225B42A361A26060B3AD
:1010A000002070BD2846FFF7A1FA294B9C42E0D1F1
:1010B0006C68B4F90C2093B21907E6D4DD063CD570
:1010C000580726D4206942F00803A3819BB2002868
:1010D000DDD103F42072B2F5007FD8D0304621462E
:1010E00000F0EEFAA389206913F00102D2D199072A
:1010F00058BF6269A2600028D2D1B4F90C301A0638
:10110000CFD543F04003A3814FF0FF3070BDAC68F2
:10111000B6E7616B51B104F14403994204D0304603
:1011200000F074FCB4F90C200023636300232069F1
:10113000636022F024022060C5E742F040020923E8
:1011400033604FF0FF30A28170BD00BF0800002067
:101150002044000800440008E043000838B5074C6C
:10116000002305460846236000F010FD431C00D014
:1011700038BD2368002BFBD02B6038BD5402002003
:101180008B891A072DE9F0410C46804641D44A6804
:10119000002A59DDE66A002E53D00022D8F800500C
:1011A000216AC8F8002013F4805251D1012340462F
:1011B000B047431C5FD0A389E66A216A5F0705D563
:1011C0006268636B801A0BB1236CC01A024600235D
:1011D0004046B047461C45D1D8F80030B4F90C2041
:1011E000002B55D01D2B01D0162B5AD1236900227C
:1011F000C4E90032616BC8F8005011B304F1440334
:10120000994202D0404600F001FC00206063BDE836
:10121000F0810E69AEB10D680E6099070CBF63696D
:101220000023AD1BA3600AE02B463246A76A216A61
:101230004046B8470028A5EB000506440ADD002D0E
:10124000F2DC0020BDE8F0810A6C002AA2DCF8E79D
:10125000606DB3E7A38943F04003A3814FF0FF30F3
:10126000BDE8F0812269A389226000226260DA046D
:10127000C0D56065BEE7D8F80030002B9BD01D2B91
:101280000CD0162B0AD0A38943F04003A381D9E7E1
:101290002169C4E90013D304ACD5EAE7C8F80050CB
:1012A000CFE742F04002A281CCE700BF0B6923B335
:1012B00010B5044682B008B18369BBB1104B9942A6
:1012C00012D0104B994216D00F4B994208BFE168DB
:1012D000B1F90C302BB1204602B0BDE81040FFF749
:1012E0004FBF002002B010BD6168F1E70191FFF728
:1012F0007DF90199E2E7A168EAE70020704700BFA5
:101300002044000800440008E043000820B1054BD9
:1013100001461868FFF7CABF034B04491868FFF776
:10132000ABB900BF08000020DC430008AD12000884
:101330009368002B00F002812DE9F04FB1F90C30D9
:101340009BB20C46190783B08246904635D5226978
:101350009AB313F00202D8F800603DD00027D4F809
:1013600028B0D4F820C0DFF8CC923D464D452B463E
:101370003A4628BF4B4661465046D5B1D84700286B
:1013800040F3D280D8F808301B1A07442D1AC8F849
:101390000830002B00F0B780D4F820C0D4F828B073
:1013A0004D452B463A4628BF4B4661465046002DD8
:1013B000E4D1D6E900750836D8E721465046FFF754
:1013C0004DFE002840F03081B4F90C30D8F80060B0
:1013D0009BB213F00202C1D113F0010940F0B080BA
:1013E000A76820684D46002D54D09A0540F1BC8076
:1013F000AF42BB4600F2E78013F4906F2FD0D4E9E0
:10140000041707EB4707A0EB010B07EBD777681C26
:101410007F105844B8423A4684BF07463A465B05B7
:1014200040F1E98011465046FFF750F9002800F0DE
:10143000F5805A462169019000F0E2F9A289019BEA
:1014400022F4906242F08002A281A7EB0B0203EB30
:101450000B00676123612060A2602F46AB465A46AD
:10146000494600F067FAA2682368D21B5B442F4606
:10147000A26023600025D8F80830DB1BB944C8F807
:101480000830002B3FD0B4F90C30A76820689BB21D
:10149000002DAAD1D6E900950836A4E70BF1080380
:1014A00053E902679B460833002FF9D03A460A21D8
:1014B000304600F055F9002853D00130A0EB060962
:1014C0004B46D4E904122068BB4228BF3B46884201
:1014D00003D9A5681544AB4219DC9A427DDC13465A
:1014E000A56A216A32465046A847051E1CDDB9EBA5
:1014F00005096BD00120D8F808305B1B2E447F1BF8
:10150000C8F8083013BB002003B0BDE8F08F3146A7
:101510002A4600F00FFA23682B44236021465046E8
:10152000FFF7C4FE0028E2D0B4F90C3043F04003CA
:101530004FF0FF30A38103B0BDE8F08F002070476B
:1015400033469146104617464E469B46002FA5D07F
:101550000028B5D13A460A21304600F001F90028AA
:10156000ABD17B1C9946ACE72369834215D36169F3
:10157000A94212D82E4BA76A9D4294BF2B466FF00A
:1015800000434A4693FBF1F3504601FB03F3216A03
:10159000B847071EC8DDED1B6DE7AF4228BF2F46D9
:1015A0003A46494600F0C6F9A3682268DB1B3A4474
:1015B000A3602260002BEED121465046FFF776FE55
:1015C0000028E8D0B0E72F46AB4648E72146504612
:1015D000FFF76CFE00288ED0A6E71A46314601932D
:1015E00000F0A8F9019BA1682268C91A1A44A160F9
:1015F00022601D467BE7504600F05EFA0346002855
:101600007FF423AF2169504600F000FAB4F90C30A2
:101610000C2223F08003CAF8002087E70C23CAF8C5
:101620000030B4F90C3081E74FF0FF306CE700BFB9
:10163000FEFFFF7F00FCFF7F70B50D46084C114692
:1016400006461A4628460023236000F0B7FA431CDA
:1016500000D070BD2368002BFBD0336070BD00BF8D
:101660005402002070B50C46B1F90E10002996B056
:1016700016461D4613DB6A4600F05AFA00280EDBB8
:10168000019A02F47042A2F50052B2FA82F25209B3
:101690004FF4806300202A60336016B070BDA389C8
:1016A00000221B062A6004D540230020336016B0B8
:1016B00070BD4FF480630020336016B070BD00BF72
:1016C0008A8992070B4606D501F1470201211A606B
:1016D000C3E90421704770B582B001AB6A460C467D
:1016E0000646FFF7BFFF009905463046FEF7EEFFBE
:1016F000B4F90C3070B11649B162019A00992060BA
:1017000043F08003A381C4E904018AB92B43A38178
:1017100002B070BD9A05FBD423F0030304F1470225
:1017200043F002030121A3812260C4E90421EFE711
:101730003046B4F90E1000F00FFA10B9B4F90C30BD
:10174000E4E7A38923F0030343F001031BB2DDE7C1
:10175000210400080000000000000000000000005C
:1017600001F0FF01102A2BDB10F0070F08D010F852
:10177000013B013A8B422DD010F0070F42B3F6D156
:10178000F0B441EA012141EA014122F007047FF06F
:1017900000070023F0E80256083C85EA010586EAC6
:1017A000010685FA47F5A3FA87F586FA47F6A5FA02
:1017B00087F68EB9EED1F0BC01F0FF0102F007020E
:1017C00032B110F8013B013A83EA010313B1F8D1B9
:1017D0000020704701387047002D06BF354603389A
:1017E000073815F0010F07D1013015F4807F02BFD3
:1017F000013015F4C03F0130F0BC0138704700BF24
:10180000844641EA000313F003036DD1403A41D30B
:1018100051F8043B40F8043B51F8043B40F8043BCA
:1018200051F8043B40F8043B51F8043B40F8043BBA
:1018300051F8043B40F8043B51F8043B40F8043BAA
:1018400051F8043B40F8043B51F8043B40F8043B9A
:1018500051F8043B40F8043B51F8043B40F8043B8A
:1018600051F8043B40F8043B51F8043B40F8043B7A
:1018700051F8043B40F8043B51F8043B40F8043B6A
:1018800051F8043B40F8043B51F8043B40F8043B5A
:10189000403ABDD2303211D351F8043B40F8043BFA
:1018A00051F8043B40F8043B51F8043B40F8043B3A
:1018B00051F8043B40F8043B103AEDD20C3205D30A
:1018C00051F8043B40F8043B043AF9D2043208D002
:1018D000D2071CBF11F8013B00F8013B01D30B8874
:1018E00003806046704700BF082A13D38B078DD052
:1018F00010F003038AD0C3F10403D21ADB071CBF24
:1019000011F8013B00F8013B80D331F8023B20F88D
:10191000023B7BE7043AD9D3013A11F8013B00F8C6
:10192000013BF9D20B7803704B7843708B7883704E
:10193000604670478842F0B40DD98B1883420AD9AB
:10194000841832B1224613F8014D02F8014D994234
:10195000F9D1F0BC70470F2A0ED80346541E002A56
:10196000F7D001340C44013B11F8012B03F8012F8F
:10197000A142F9D1F0BC704740EA01039B073BD17B
:10198000A2F110073F0901F1200606EB071601F14D
:10199000100300F1100453F8105C44F8105C53F885
:1019A0000C5C44F80C5C53F8085C44F8085C53F891
:1019B000045C44F8045C1033B34204F11004EAD12F
:1019C0007B1C1B0112F00C0F194402F00F0503449D
:1019D00015D0043DAD0803EB850C1C1F0E4656F8D0
:1019E000047B44F8047F6445F9D10135AD002B44F4
:1019F000294402F00302B1E7541E0346B1E72A4628
:101A0000ACE700BF704700BF704700BF00293CD063
:101A100038B551F8043C0C1F002BB8BFE41805463C
:101A2000FFF7F0FF234B1A682AB1A2420DD92168B3
:101A30006018824223D0626028461C60BDE83840AE
:101A4000FFF7E2BFA34203D81A465368002BF9D12F
:101A500011685018A04219D024D821686018834218
:101A600006D0636054602846BDE83840FFF7CCBF1D
:101A7000D3E900030144636021605460F3E7D2E9D5
:101A80000002014462602160D6E77047206801448B
:101A9000501883421160E6D1D3E90003014453603A
:101AA0001160E0E70C232B602846BDE83840FFF7C3
:101AB000ABBF00BFB400002009B3F8B51446CAB1EB
:101AC00006460D4600F05AF8A04202D32F4638468B
:101AD000F8BD21463046FEF7F9FD07460028F6D04E
:101AE00022462946FFF78CFE30462946FFF78EFF37
:101AF0003846F8BD2746FFF789FF3846F8BD11463E
:101B0000FEF7E4BD70B50D46084C114606461A4670
:101B100028460023236000F059F8431C00D070BD14
:101B20002368002BFBD0336070BD00BF540200203F
:101B300038B50B46074C054611461846002323606E
:101B400000F02CF8431C00D038BD2368002BFBD0DC
:101B50002B6038BD5402002038B5074C00230546E1
:101B60000846236000F022F8431C00D038BD2368EB
:101B7000002BFBD02B6038BD5402002051F8043CF0
:101B8000181F002BBCBF0B58C0187047024B5822BF
:101B90001A604FF0FF30704754020020024B582269
:101BA0001A604FF0FF30704754020020024B582259
:101BB0001A600020704700BF54020020024B5822D8
:101BC0001A604FF0FF30704754020020024B582239
:101BD0001A604FF0FF30704754020020044A054954
:101BE0001368002B08BF0B46184410601846704756
:101BF000BC0000205802002053B94AB9002908BF90
:101C000000281CBF4FF0FF314FF0FF3000F06EB9DD
:101C1000ADF1080C6DE904CE00F006F8DDF804E043
:101C2000DDE9022304B070472DE9F047089D044622
:101C30008C46002B40F083808A42174647D9B2FA7F
:101C400082F242B1C2F1200024FA00F091409740A4
:101C500040EA010C94404FEA1748230CBCFBF8F60D
:101C60001FFA87FE08FB16C143EA014306FB0EF18B
:101C7000994209D9FB1806F1FF3080F01981994289
:101C800040F21681023E3B445B1AA4B2B3FBF8F06B
:101C900008FB103344EA034400FB0EFEA64509D9B5
:101CA0003C1900F1FF3380F00581A64540F2028126
:101CB00002383C4440EA0640A4EB0E0400261DB165
:101CC000D4400023C5E900433146BDE8F08702B99E
:101CD000FFDEB2FA82F2002A50D1CB1B4FEA174E38
:101CE0001FFA87F80126B3FBFEFC210C0EFB1C3308
:101CF00041EA034108FB0CF38B4207D979180CF138
:101D0000FF3002D28B4200F2E9808446C91AA3B2A6
:101D1000B1FBFEF00EFB101143EA014408FB00F892
:101D2000A04507D93C1900F1FF3302D2A04500F2CB
:101D3000D9801846A4EB080440EA0C40BFE78B4268
:101D400009D9002D00F0B1800026C5E90001304618
:101D50003146BDE8F087B3FA83F6002E4AD18B42B4
:101D600002D3824200F2B880841A61EB03010120A1
:101D70008C46002DA8D0C5E9004CA5E7C2F1200390
:101D800020FA03F6974001FA02F04FEA174ED940C5
:101D90003043030CB1FBFEF61FFA87F80EFB161159
:101DA00043EA014306FB08F1994204FA02F409D917
:101DB000FB1806F1FF3C80F08D80994240F28A804A
:101DC000023E3B445B1A81B2B3FBFEF00EFB1033C4
:101DD00041EA034100FB08F38B4207D9791800F16F
:101DE000FF3C73D28B4271D902383944CB1A40EA96
:101DF000064678E7C6F1200C03FA06F422FA0CF343
:101E00001C4320FA0CF701FA06F34FEA144E21FAAC
:101E10000CF11F433B0CB1FBFEF91FFA84F80EFBDB
:101E2000191143EA014109FB08FA8A4502FA06F250
:101E300000FA06F308D9611809F1FF3048D28A4543
:101E400046D9A9F102092144A1EB0A01BFB2B1FBB5
:101E5000FEF00EFB101147EA014700FB08F8B845F9
:101E600007D9E71900F1FF312ED2B8452CD9023835
:101E7000274440EA0940A7EB0807A0FB02894F4529
:101E8000C64649461AD317D05DB1B3EB0E0267EBD5
:101E9000010707FA0CFCF2404CEA0202F740C5E9E0
:101EA000002700263146BDE8F0872E4628460BE77E
:101EB0000646E9E61846FDE64345E5D2B8EB020ED4
:101EC00069EB04010138DFE70846D2E760468DE799
:101ED0008146B9E7664675E730464AE7ACF1020C41
:101EE000394413E702383C4424E700BF704700BF81
:101EF00072B6FEE700B59BB04822002108A8FEF7A5
:101F000087F90023019302930393049305930693A7
:101F1000079318490A6822F4C06242F400720A600A
:101F20000A6802F4C0620092009A032208924FF4F9
:101F3000803209924FF480720B9240220C921393DC
:101F400008A801F03FF888B96F2301930223029398
:101F5000002303930493059306930793012101A89B
:101F600001F0C6FB20B91BB05DF804FBFFF7C0FF12
:101F7000FFF7BEFF0004005800B595B044220021D1
:101F800001A8FEF745F94FF4005300930023129384
:101F90001393684601F0D7FD10B915B05DF804FB46
:101FA000FFF7A6FF08B52C4B01221A6002F0BEF81D
:101FB000FFF7A0FFFFF7E0FF00F060F800F0F2F895
:101FC00000F0BCF802F066F91EE0244C00252570F4
:101FD0002348FEF785F94FF47A731E2221462148E3
:101FE00000F068FD21462048FEF77AF90121022021
:101FF00002F02EF9642002F0C7F82946022002F010
:1020000027F9154B01221A60134B1B68002BDCD0FB
:102010001648FEF765F91021154801F0E7FF012881
:10202000F2D11448FEF75CF9134C2046FEF788F90C
:102030004FF6FF7382B221460A4800F0CCFC4FF401
:10204000FA7002F0A1F80021022002F001F9024B1F
:1020500000221A60D8E700BFE0000020C000002086
:1020600068440008E40000207C4400084044000864
:1020700000080048584400086C00002070B58AB081
:102080000024059406940794089409944FF0B043F3
:10209000DA6C42F00402DA64DA6C02F004020492B0
:1020A000049ADA6C42F00102DA64DA6C02F001029E
:1020B0000392039ADA6C42F00202DA64DA6C02F0FC
:1020C00002020292029ADA6C42F00802DA64DB6CD5
:1020D00003F008030193019B154E2246232130464D
:1020E00001F08BFF0223059303250695079405A9AC
:1020F0004FF0904001F0B6FE10230593069407942C
:1021000005A90C4801F0AEFE232305930123069395
:102110000794089405A9304601F0A4FE059506949D
:10212000079405A9044801F09DFE0AB070BD00BFE8
:102130000004004800080048000C004808B5174893
:10214000174B03604FF41653436000238360C36052
:1021500003610C22426183610362436283624366CE
:1021600000F078FD70B900210C4800F0ECFD60B97A
:1021700000210A4800F00CFE50B9084800F0C4FDE8
:1021800048B908BDFFF7B4FEEDE7FFF7B1FEEFE792
:10219000FFF7AEFEF1E7FFF7ABFEF2E7E400002049
:1021A0000080004008B51748174B03604FF4E13337
:1021B000436000238360C36003610C22426183613A
:1021C000C36103624362836200F044FD70B9002181
:1021D0000C4800F0B8FD60B900210A4800F0D8FDB5
:1021E00050B9084800F090FD48B908BDFFF780FEDF
:1021F000EDE7FFF77DFEEFE7FFF77AFEF1E7FFF788
:1022000077FEF2E7740100200038014010B59EB05F
:102210000446002119911A911B911C911D91502285
:1022200005A8FDF7F5FF2368314A934204D0314AEF
:1022300093422FD01EB010BD0223059300230C93B0
:1022400005A801F080FC10BB4FF0B043DA6D42F0FE
:102250000102DA65DA6D02F001020292029ADA6C8A
:1022600042F00102DA64DB6C03F001030193019B8D
:102270000C23199302231A9300231B931C93082306
:102280001D9319A94FF0904001F0ECFDD2E7FFF744
:102290002FFED9E70123059300230B9305A801F036
:1022A00052FC10BB4FF0B0431A6E42F480421A66E3
:1022B0001A6E02F480420492049ADA6C42F002022E
:1022C000DA64DB6C03F002030393039BC0231993CE
:1022D00002231A9301231B9300231C9307231D93AE
:1022E00019A9054801F0BEFDA4E7FFF701FED9E7F3
:1022F000008000400038014000040048FEE7FEE78F
:10230000FEE7FEE7FEE770477047704708B501F04B
:1023100023FF08BD704730B4036A056A25F0010544
:102320000562846924F0F00444EA021423F00A03ED
:102330000B438461036230BC704730B4056A25F0FA
:10234000100505628469036A24F4704444EA023487
:1023500023F0A00343EA01138461036230BC704799
:10236000836823F4401323F070030B4343F0070307
:102370008360704703681A4A904202D0B0F1804FE0
:1023800003D123F070034A681343154A90420AD0E0
:10239000B0F1804F07D002F5C052904203D002F551
:1023A0008062904203D123F44073CA68134323F040
:1023B00080034A69134303608B68C3620B688362BE
:1023C000074B984207D003F5C053984203D003F55A
:1023D0008063984201D10B69036301234361704715
:1023E000002C014060B310B5044690F83D3013B3A3
:1023F000022384F83D30214651F8040BFFF7BAFF61
:10240000012384F8483084F83E3084F83F3084F863
:10241000403084F8413084F8423084F8433084F806
:10242000443084F8453084F8463084F8473084F8E6
:102430003D30002010BD80F83C3001F061FFD7E74F
:102440000120704710B4846824F47F4442EA0322D8
:102450000A43224382605DF8044B704790F83C3099
:10246000012B76D010B50446012380F83C300223BE
:1024700080F83D3002689068374B034093600B68EA
:10248000602B4CD029D8402B54D00CD9502B22D1C2
:10249000CA6849682068FFF73EFF50212068FFF7AF
:1024A0005FFF002005E0202B0DD009D9302B0AD08A
:1024B0000120012384F83D30002384F83C3010BD16
:1024C0000BB1102B05D119462068FFF749FF0020FA
:1024D000EFE70120EDE70120EBE7B3F5805F34D0B3
:1024E000B3F5005F0CD1CB684A6889682068FFF7B4
:1024F000A9FF2268936843F4804393600020D8E7E3
:10250000702B24D1CB684A6889682068FFF79AFF4E
:102510002268936843F0770393600020C9E7CA6894
:1025200049682068FFF709FF60212068FFF718FF5E
:102530000020BEE7CA6849682068FFF7ECFE40212A
:102540002068FFF70DFF0020B3E70020B1E701206E
:10255000AFE70220704700BF8800CEFF90F83C3004
:10256000012B2BD030B4012380F83C30022380F8BB
:102570003D30026853689568114CA24219D023F08F
:1025800070030C682343536003680D4A934202D0E2
:10259000B3F1804F04D125F080058A6815439D6012
:1025A000012380F83D30002380F83C30184630BCD1
:1025B000704723F470034C682343E0E70220704720
:1025C000002C01402DE9F04104460168836802694E
:1025D000134342691343C269134308688F4A024098
:1025E00013430B602268536823F44053E1680B43A4
:1025F0005360A16922688A4B9A4201D0236A194329
:10260000936823F06E4323F430630B439360226896
:10261000D36A23F00F03616A0B43D3622268814BB4
:102620009A4219D07E4B9A422AD010237C498A4282
:1026300045D0E069B0F5004F00F08280013B072BE8
:1026400000F2E680DFE813F0AC00AA00E400CE0060
:10265000E400E400E400D1004FF0B043D3F8883048
:1026600003F00303032B09D8DFE803F002041F067D
:102670000123DBE70423D9E70823D7E71023D5E7B5
:102680004FF0B043D3F8883003F44063B3F5006FE4
:102690000DD005D86BB1B3F5806F0CD10423C5E71D
:1026A000B3F5406F09D10823C0E70223BEE7022338
:1026B000BCE70023BAE71023B8E71023B6E7082BDE
:1026C00000F29680DFE803F008943A9437949494EB
:1026D00005004FF4004004E001F03CF9002800F050
:1026E0008980626A504B33F81220B0FBF2F36568C0
:1026F00005EB450199427FD8B3EB053F7ED84FF0FB
:10270000000892B200234146FFF776FA0F0247EA2B
:102710001067060268082A464346301847F1000150
:10272000FFF76AFAA0F54072404B9A4268D82368D6
:10273000D86040464CE000F0D5FBCFE73C48D0E7FE
:10274000013B072B5ED8DFE803F006045D265D5DE4
:102750005D0A374803E001F00FF9002854D0626A9F
:10276000314B33F81230B0FBF3F06268530803EBDF
:102770004000B0FBF2F080B2A0F110024FF6EF7310
:102780009A4243D820F00F03C0F342001843236855
:10279000D86000201CE000F0A5FBDEE7244802E042
:1027A00001F0EAF8B0B3626A1F4B33F81230B0FBA5
:1027B000F3F0636800EB5300B0FBF3F080B2A0F1DC
:1027C00010024FF6EF739A4226D82368D860002093
:1027D0000123A4F86A30A4F86830002323676367F4
:1027E000BDE8F08100F07EFBDCE74FF40040DAE763
:1027F0000120EDE70020EBE70120E9E70120E7E712
:102800000120E5E70120E3E70020E1E70120DFE721
:102810000120DDE70020DBE70120D9E7F369FFCFE6
:10282000008000400038014094440008FFFC0F0085
:102830000024F400836A13F0010F06D00268536885
:1028400023F40033C16A0B435360836A13F0020F11
:1028500006D00268536823F48033016B0B43536046
:10286000836A13F0040F06D00268536823F48023B0
:10287000416B0B435360836A13F0080F06D0026864
:10288000536823F40043816B0B435360836A13F056
:10289000100F06D00268936823F48053C16B0B437A
:1028A0009360836A13F0200F06D00268936823F4C4
:1028B0000053016C0B439360836A13F0400F0AD0FE
:1028C0000268536823F48013416C0B435360436CDC
:1028D000B3F5801F0BD0836A13F0800F06D0026817
:1028E000536823F40023C16C0B43536070470268A4
:1028F000536823F4C003816C0B435360EBE72DE96D
:10290000F84305460F4616469946DDF820802C68A8
:10291000E46937EA04030CBF01240024B44257D110
:10292000B8F1FF3FF3D001F023FCA0EB09004045D4
:102930002FD8B8F1000F2CD02B681A6812F0040FB2
:10294000E5D0DA6912F4006FE1D04FF400621A6248
:102950002A6852E8003F23F4D07342E8003100298E
:10296000F6D12A6802F1080353E8003F23F001037F
:10297000083242E800310029F3D12023C5F8843021
:10298000C5F88830C5F88C30002385F880300320E6
:102990001FE02A6852E8003F23F4D07342E8003178
:1029A0000029F6D12A6802F1080353E8003F23F01A
:1029B0000103083242E800310029F3D12023C5F891
:1029C0008430C5F88830002385F88030032000E08B
:1029D0000020BDE8F8832DE9F04182B01E46D0F812
:1029E0008430202B58D104460D469046002957D0FC
:1029F000002A57D090F88030012B55D0012380F861
:102A000080300023C0F88C302123C0F8843001F0DE
:102A1000AFFB0746A4F85480A4F85680A368B3F52A
:102A2000805F05D04FF00008002384F8803014E068
:102A3000236913B14FF00008F6E7A8460025F3E735
:102A400038F8023B2268C3F308039362B4F85620B7
:102A500092B2013A92B2A4F85620B4F856309BB222
:102A600073B100963B46002280212046FFF747FFC6
:102A7000E0B9002DE4D015F8012B23689A62E5E750
:102A800000963B46002240212046FFF738FF78B9E8
:102A90002023C4F8843000E0022002B0BDE8F081B9
:102AA0000120FAE70120F8E70220F6E70320F4E727
:102AB0000320F2E72DE9F04383B01E46D0F88830BA
:102AC000202B40F0818004460D46904600297FD09F
:102AD000002A7FD090F88030012B7DD0012380F830
:102AE00080300023C0F88C302222C0F88820C366D2
:102AF00001F03EFB0746A4F85C80A4F85E80A36862
:102B0000B3F5805F06D0A3B9226972B9FF22A4F899
:102B1000602014E0226922B940F2FF12A4F860207C
:102B20000DE0FF22A4F8602009E07F22A4F86020D5
:102B300005E0B3F1805F0DD00022A4F86020B4F866
:102B40006080B3F5805F0FD04FF00009002384F858
:102B500080301EE022691AB97F22A4F86020EEE7D7
:102B60003F22A4F86020EAE7236913B14FF000097F
:102B7000ECE7A9460025E9E723685B6A08EA030356
:102B800029F8023BB4F85E2092B2013A92B2A4F85E
:102B90005E20B4F85E309BB28BB100963B460022BB
:102BA00020212046FFF7ABFEC0B9002DE4D02368FA
:102BB0005A6A5FFA88F3134005F8013BE2E72023E5
:102BC000C4F88830002000E0022003B0BDE8F083A4
:102BD0000120FAE70120F8E70220F6E70320F4E7F6
:102BE00030B583B004460023C0F88C3001F0C0FA41
:102BF000054623681B6813F0080F0FD123681B6874
:102C000013F0040F18D12023C4F88430C4F888309E
:102C10000020E06684F8800003B030BD6FF07E4392
:102C20000093034600224FF400112046FFF767FE91
:102C30000028E3D00320EFE76FF07E4300932B469C
:102C400000224FF480012046FFF759FE0028DAD019
:102C50000320E1E778B310B50446D0F884300BB315
:102C60002423C4F884302268136823F0010313601E
:102C70002046FFF7A7FC012813D0A36ABBB922683E
:102C8000536823F4904353602268936823F02A0327
:102C900093602268136843F0010313602046FFF736
:102CA0009FFF10BD80F88030FFF7B0FAD8E72046CC
:102CB000FFF7C0FDE3E7012070470000436E2BB92A
:102CC0000123A0F86A30A0F86830704730B4036878
:102CD0009A68C2F342629968490F094D6B5CDB0048
:102CE000084C615C93FBF1F3A0F86A30AB5CDB004D
:102CF000A25C93FBF2F3A0F8683030BC704700BFD1
:102D0000B4440008AC44000890F88030012B18D07F
:102D1000012380F880302423C0F8843003681A68C7
:102D2000196821F00101196022F000520023436666
:102D300001680A602022C0F8842080F8803018469C
:102D400070470220704738B590F88030012B1DD0B5
:102D50000446012380F880302423C0F884300368BF
:102D60001D681A6822F001021A600268936823F055
:102D7000604319439160FFF7A1FF23681D60202382
:102D8000C4F88430002084F8800038BD0220FCE7BD
:102D900038B590F88030012B1DD00446012380F80F
:102DA00080302423C0F8843003681D681A6822F03C
:102DB00001021A600268936823F06063194391600E
:102DC000FFF77CFF23681D602023C4F884300020B7
:102DD00084F8800038BD0220FCE70000F0B58DB01B
:102DE00005460F462A4C94E80F000CAE06E90F008A
:102DF00005AB04F1100207CA83E8070001AE1C34DA
:102E000094E80F0086E80F00B7F5007F1BD0002381
:102E1000022B22D80CAA02EB830252F81C2CAA42E5
:102E200015D20133F4E70133032B0ED80CAA02EBC1
:102E3000830252F8102CAA42F5D30CAA02EB8303AA
:102E400053F82C5C0AE00023EEE7002506E00CAA0C
:102E500002EB830353F82C5C00E000250D4A136855
:102E600023F007032B43136001F082F90446094B5A
:102E70001B6803F00703AB4206D001F079F9001B91
:102E80000228F4D9032000E000200DB0F0BD00BFFF
:102E9000B04300080040005810B5B02816D90E4BBA
:102EA000DC6A4FF0B043D3F8083103F00F030B4A4C
:102EB00052F82300B4FBF0F401F0ACF801460848E6
:102EC000A0FB0430800CFFF789FF10BDC0F3031096
:102ED000014B53F82040E4E71C450008BC440008BF
:102EE00083DE1B434FF0B0439B6813F00C030DD1FE
:102EF0004FF0B0431B6803F0F003B02B04D81B095C
:102F0000254A52F823007047B023F8E7042B3ED03F
:102F1000082B10D04FF0B043DB6803F00303022B03
:102F20001FD0032B0FD14FF0B0431B6813F4801F49
:102F30002BD11A4B16E04FF0B0431B6813F4801FDF
:102F400027D0174870474FF0B0431B6803F0F003D9
:102F5000B02B04D81B09104A52F8233002E0B023EA
:102F6000F8E70F4B4FF0B042D068C0F3062000FBEB
:102F700003F0D368C3F302130133B0FBF3F0D3685B
:102F80005B0F0133B0FBF3F07047054BEAE70448F1
:102F900070470248704700BF1C4500080048E80120
:102FA0000024F40008B5FFF79DFF4FF0B0439B6885
:102FB000C3F30313024A52F82330B0FBF3F008BD09
:102FC000BC440008002800F07E8338B5044603683E
:102FD00013F0200F7FD04FF0B0429368D26802F018
:102FE000030213F00C031DD00C2B19D0E369002B46
:102FF00000F09E804FF0B042136843F0010313606D
:1030000001F0B6F805464FF0B0431B6813F0020F0D
:1030100052D101F0ADF8401B0228F4D903205DE342
:10302000012AE3D14FF0B0431B6813F0020F03D025
:10303000E369002B00F04983606A4FF0B0431B68DE
:1030400003F0F003B02B20D8984220D9FFF724FFDB
:10305000002840F03C83636A4FF0B042116821F0D1
:10306000F0010B431360216A536823F47F4343EA62
:1030700001235360FFF796FFC44B1860C44B1868D8
:1030800001F02CF838B3012028E3B023DCE74FF03F
:10309000B042136823F0F00318431060216A5368AC
:1030A00023F47F4343EA01235360606AFFF7F4FE91
:1030B0000028DFD0012011E3636A4FF0B0421168AD
:1030C00021F0F0010B431360216A536823F47F431E
:1030D00043EA01235360236813F0010F4AD04FF0F5
:1030E000B042936803F00C03D26802F00302082B8D
:1030F00036D00C2B32D06368B3F5803F63D04FF0ED
:10310000B042136823F4803313606368002B61D0EE
:1031100001F02EF805464FF0B0431B6813F4003F52
:1031200028D101F025F8401B6428F4D90320D5E20A
:103130004FF0B042136823F00103136001F018F858
:1031400005464FF0B0431B6813F0020FC3D001F0E7
:103150000FF8401B0228F4D90320BFE2032ACAD18A
:103160004FF0B0431B6813F4003F03D06368002B9B
:1031700000F0AF82236813F0020F50D04FF0B0423E
:10318000936803F00C03D26802F00302042B33D0DF
:103190000C2B2FD0E368002B77D04FF0B042136890
:1031A00043F48073136000F0E3FF05464FF0B04333
:1031B0001B6813F4806F5ED100F0DAFF401B022819
:1031C000F4D903208AE24FF0B042136843F480330D
:1031D00013609AE700F0CCFF05464FF0B0431B6840
:1031E00013F4003FC6D000F0C3FF401B6428F4D99D
:1031F000032073E2022ACDD14FF0B0431B6813F4D1
:10320000806F03D0E368002B00F0658221694FF0E6
:10321000B042536823F0FE4343EA016353602368DE
:1032200013F0180F00F0E8806269002A00F0B28005
:1032300013F0100F7AD04FF0B043D3F8943013F05E
:10324000020F38D14FF0B042D2F8943043F001036E
:10325000C2F8943000F08CFF05464FF0B043D3F82D
:10326000943013F0020F26D100F082FF401B022899
:10327000F3D9032032E221694FF0B042536823F0C2
:10328000FE4343EA01635360C9E74FF0B04213685D
:1032900023F48073136000F06BFF05464FF0B043DA
:1032A0001B6813F4806FBAD000F062FF401B022845
:1032B000F4D9032012E24FF0B042D2F8943043F038
:1032C0000403C2F8943000F053FF05464FF0B043BA
:1032D000D3F8943013F0080F06D100F049FF401BDB
:1032E0000328F3D90320F9E1A1694FF0B042D2F8E5
:1032F000943023F4706343EA0123C2F89430D2F887
:10330000943023F00103C2F8943000F031FF0546F9
:103310004FF0B043D3F8943013F0020F6CD000F0AC
:1033200027FF401B0228F3D90320D7E14FF0B0421A
:10333000D2F8943043F00103C2F8943000F018FF43
:1033400005464FF0B043D3F8943013F0020F06D186
:1033500000F00EFF401B0228F3D90320BEE14FF01E
:10336000B042D2F8943023F00403C2F894304FF006
:10337000B043D3F8943013F0080F3DD000F0F8FEBE
:10338000401B0328F3D90320A8E100BF7C000020E4
:10339000780000204FF0B042D2F8943023F00403BC
:1033A000C2F8943000F0E4FE05464FF0B043D3F885
:1033B000943013F0080F18D14FF0B042D2F8943087
:1033C00023F00103C2F8943000F0D2FE05464FF01E
:1033D000B043D3F8943013F0020F0DD000F0C8FEC4
:1033E000401B0228F3D9032078E100F0C1FE401B06
:1033F0000328DAD9032071E1236813F0040F68D0A1
:10340000B94B1B6813F4807F27D0A368012B35D0FC
:10341000052B3CD04FF0B043D3F8902022F00102AE
:10342000C3F89020D3F8902022F00402C3F8902033
:10343000A368DBB300F09CFE05464FF0B043D3F821
:10344000903013F0020F44D100F092FE401B41F285
:1034500088339842F1D9032040E100F0D3FD00F019
:1034600087FE0546A04B1B6813F4807FCDD100F08A
:103470007FFE401B0228F5D903202FE14FF0B04218
:10348000D2F8903043F00103C2F89030D0E74FF00B
:10349000B043D3F8902042F00402C3F89020D3F850
:1034A000902042F00102C3F89020C1E700F060FED6
:1034B00005464FF0B043D3F8903013F0020F08D018
:1034C00000F056FE401B41F288339842F1D90320A8
:1034D00004E1236813F0400F33D0A36AC3B14FF067
:1034E000B042D2F8983043F00103C2F8983000F0AF
:1034F0003FFE05464FF0B043D3F8983013F0020F6B
:103500001FD100F035FE401B0228F3D90320E5E06F
:103510004FF0B042D2F8983023F00103C2F898304F
:1035200000F026FE05464FF0B043D3F8983013F074
:10353000020F06D000F01CFE401B0228F3D9032026
:10354000CCE0E36A002B00F0C8804FF0B0429168F5
:1035500001F00C01D268022B23D00C2900F0C180AD
:103560004FF0B0431A6822F080721A60DA6822F0D5
:103570000302DA60DA6822F0885222F48032DA60DC
:1035800000F0F6FD04464FF0B0431B6813F0007FD7
:1035900000F0978000F0ECFD001B0228F3D9032017
:1035A0009CE002F00303206B83420AD00C2900F058
:1035B00096804FF0B0431B6813F0806F22D001203B
:1035C0008CE002F07003606B8342EFD1C2F30623FC
:1035D000A06B8342EAD102F47813E06B8342E5D119
:1035E00002F06063206C8342E0D102F06042636CC1
:1035F0009A42DBD14FF0B0431B6813F0007F44D0F8
:1036000000206BE04FF0B042136823F0807313602A
:1036100000F0AEFD05464FF0B0431B6813F0007F8D
:1036200006D000F0A5FD401B0228F4D9032055E088
:103630004FF0B042D3682D491940236B606B0343B0
:10364000A06B43EA0023E06B0343206C0343606CF0
:1036500003430B43D360136843F080731360D36854
:1036600043F08053D36000F083FD04464FF0B04335
:103670001B6813F0007F06D100F07AFD001B0228C2
:10368000F4D903202AE0002028E04FF0B0431A6864
:1036900042F080721A60DA6842F08052DA6000F01C
:1036A00067FD04464FF0B0431B6813F0007F06D15E
:1036B00000F05EFD031B022BF4D903200EE0002076
:1036C0000CE000200AE001207047012006E0012004
:1036D00004E0012002E0012000E0002038BD0120CC
:1036E000FCE70120FAE700BF000400588C80C111FC
:1036F000002800F0278170B50C460546934B1B68E7
:1037000003F007038B422DD32B6813F0020F3FD138
:103710002B6813F0200F53D12B6813F0400F6AD1A0
:103720002B6813F0040F40F083802B6813F0080F10
:1037300040F097802B6813F0010F00F0DE806B687B
:10374000022B00F0A880032B00F0AD80002B40F08E
:10375000B2804FF0B042126812F0020F40F0B18018
:103760000120EEE0794A136823F007030B4313604E
:1037700000F0FEFC0646754B1B6803F00703A342EE
:10378000C2D000F0F5FC801B0228F4D90320D8E059
:10379000AB684FF0B0418A6822F0F00213438B60AF
:1037A00000F0E6FC06464FF0B0439B6813F4803F00
:1037B000AED100F0DDFC801B0228F4D90320C0E06C
:1037C0006B694FF0B041D1F8082122F0F0021343A9
:1037D000C1F8083100F0CCFC06464FF0B043D3F8F6
:1037E000083113F4003F97D100F0C2FC801B02287F
:1037F000F3D90320A5E0A9694FF0B042D2F808310F
:1038000023F00F0343EA1113C2F8083100F0B0FCB3
:1038100006464FF0B043D3F8083113F4803F7FF4ED
:103820007FAF00F0A5FC801B0228F2D9032088E0BE
:10383000EB684FF0B0418A6822F4E06213438B607A
:1038400000F096FC06464FF0B0439B6813F4003F2F
:103850007FF46BAF00F08CFC801B0228F3D90320AF
:103860006FE029694FF0B042936823F4605343EA54
:10387000C103936000F07CFC06464FF0B0439B68A8
:1038800013F4802F7FF456AF00F072FC801B0228E7
:10389000F3D9032055E04FF0B042126812F4003F14
:1038A0000FD101204DE04FF0B042126812F0007FBE
:1038B00007D1012045E04FF0B042126812F4806F4A
:1038C00042D04FF0B0418A6822F0030213438B606C
:1038D00000F04EFC06464FF0B0439B6803F00C032B
:1038E0006A68B3EB820F08D000F042FC801B41F203
:1038F00088339842EFD9032023E0144B1B6803F070
:103900000703A34215D9114A136823F00703234381
:10391000136000F02DFC05460C4B1B6803F00703F9
:10392000A34206D000F024FC401B0228F4D9032057
:1039300007E0FFF737FB064B186000F01FFC00F0B4
:10394000CDFB70BD012070470120FAE70040005810
:103950007C00002008B5FFF725FB4FF0B0439B68C3
:10396000C3F30223034A52F8233003F01F03D84065
:1039700008BD00BFFC44000808B5FFF713FB4FF07B
:10398000B0439B68C3F3C223034A52F8233003F0C9
:103990001F03D84008BD00BFFC44000870B50546B1
:1039A0004FF0B042136823F08063136000F0E0FB37
:1039B00004464FF0B0431B6813F0006F06D000F0D0
:1039C000D7FB001B0228F4D9032400E000240CB12B
:1039D000204670BD4FF0B0431A6922F4FE422968B8
:1039E00042EA01221A611A6922F4781269680A43CC
:1039F0001A611A6842F080621A6000F0B9FB06464C
:103A00004FF0B0431B6813F0006F05D100F0B0FB1E
:103A1000801B0228F4D90324002CD9D14FF0B042E6
:103A2000136929690B431361D2E770B505464FF05E
:103A3000B042136823F08063136000F099FB0446E2
:103A40004FF0B0431B6813F0006F06D000F090FBFE
:103A5000001B0228F4D9032400E000240CB1204606
:103A600070BD4FF0B0431A6922F4FE42296842EA61
:103A700001221A611A6922F06062A9680A431A6178
:103A80001A6842F080621A6000F072FB06464FF03E
:103A9000B0431B6813F0006F05D100F069FB801B79
:103AA0000228F4D90324002CD9D14FF0B042136975
:103AB00029690B431361D2E770B505464FF0B04258
:103AC000136823F08063136000F052FB04464FF04C
:103AD000B0431B6813F0006F06D000F049FB001BD9
:103AE0000228F4D9032400E000240CB1204670BD64
:103AF0004FF0B0431A6922F4FE42296842EA0122DB
:103B00001A611A6922F06042E9680A431A611A6868
:103B100042F080621A6000F02BFB06464FF0B04383
:103B20001B6813F0006F05D100F022FB801B0228F8
:103B3000F4D90324002CD9D14FF0B042136929697C
:103B40000B431361D2E770B50446036813F0400FCE
:103B50002FD0036BB3F5800F21D00AD833B90430CE
:103B6000FFF71CFF064658B1054624E001252E4606
:103B700021E0B3F5000F1AD0B3F5400F0CD10026A9
:103B8000236B4FF0B041D1F8882022F44002134358
:103B9000C1F8883000250EE001252E460BE04FF0DD
:103BA000B042D36843F48033D3600026E8E70026B0
:103BB000E6E700252E46236813F4006F0AD04FF085
:103BC000B043D3F8905005F44075236CAB4240F0FD
:103BD000D5803546236813F0010F09D0A3694FF053
:103BE000B041D1F8882022F003021343C1F8883095
:103BF000236813F0020F09D0E3694FF0B041D1F808
:103C0000882022F440621343C1F88830236813F0FF
:103C1000100F0CD0A06A4FF0B041D1F88830020CE0
:103C2000120423EA020343EA0043C1F88830236800
:103C300013F0200F0CD0E06A4FF0B041D1F888307B
:103C4000020C120423EA020343EA0043C1F888305D
:103C5000236813F0040F0FD0236A4FF0B040D0F860
:103C60008820190901F47F2122EA01021B0103F4D3
:103C70007F231343C0F88830236813F0080F0FD058
:103C8000636A4FF0B040D0F88820190901F47F2111
:103C900022EA01021B0103F47F231343C0F888309A
:103CA000236813F4807F13D0636B4FF0B041D1F8D9
:103CB000882022F040621343C1F88830636BB3F16F
:103CC000006F00F09C80636BB3F1806F00F09C800C
:103CD000236813F4007F17D0A36BB3F1804F05D096
:103CE000B3F1004F02D0002B40F096804FF0B0416E
:103CF000D1F8882022F040421343C1F88830A36BEA
:103D0000B3F1C05F00F09A80236813F4806F13D082
:103D1000E36B4FF0B041D1F8882022F040521343BA
:103D2000C1F88830E36BB3F1005F00F08E80E36B85
:103D3000B3F1805F00F08E80236813F4805F09D0B8
:103D4000636C4FF0B041D1F8942022F44042134309
:103D5000C1F89430236813F4005F0DD0E26C4FF08B
:103D6000B043596A21F030010A435A62A26C596A81
:103D700021F003010A435A62284670BD00F042F95F
:103D80005DB9236C4FF0B041D1F8902022F440721D
:103D90001343C1F8903035461CE74FF0B043D3F8D9
:103DA0009020D3F8901041F48031C3F89010D3F8EC
:103DB000901021F48031C3F8901022F44072216CED
:103DC0000A43C3F89020D3F8903013F0010F12D0BB
:103DD00000F0CEF905464FF0B043D3F8903013F021
:103DE000020F0AD100F0C4F9401B41F28833984217
:103DF000F1D90325EEE63546ECE63546EAE6CB6832
:103E000043F08073CB605EE7201DFFF70EFE0028B5
:103E10003FF45EAF05465BE723F080534FF0B042BE
:103E2000D2F8881021F04041C2F88810D2F88810EA
:103E300021F040610B43C2F8883060E74FF0B04298
:103E4000D36843F08073D3605EE7CB6843F480337C
:103E5000CB606CE7201DFFF72FFE00283FF46CAF0E
:103E6000054669E7F0B400235FE086685F0003253C
:103E7000BD4026EA0506CD68BD40354385604668ED
:103E800026EA04064D68C5F300149C4034434460A0
:103E900059E0DD08083550F8257003F00704A60046
:103EA0000F24B44027EA04070C69B4403C4340F8AF
:103EB00025405CE0042400E00024B4403C4302358B
:103EC000474E46F82540474C2568D44325EA02066C
:103ED0004F6817F4801F01D042EA0506414D2E605D
:103EE0006D6804EA05064F6817F4001F01D042EA26
:103EF00005063C4D6E60D5F8805004EA05064F6813
:103F000017F4803F01D042EA0506364DC5F88060BF
:103F1000D5F884502C404E6816F4003F01D042EA98
:103F20000504304AC2F8844001330A6832FA03F4C7
:103F300054D001249C402240F6D04D6805F0030582
:103F4000013D012D91D94C6804F00304032C09D0E4
:103F5000C5685E000324B44025EA04058C68B440BB
:103F60002C43C4604C6804F00304022C91D0056813
:103F70005E000324B44025EA04054C6804F0030401
:103F8000B4402C4304604C6814F4403FCCD09D08EE
:103F9000AE1C134C54F8267003F00304A6000F2443
:103FA000B44027EA0407B0F1904F85D00E4CA042F0
:103FB0000ED004F58064A0420CD004F58064A042C9
:103FC0000AD004F58064A0423FF474AF072474E77C
:103FD000012472E7022470E703246EE7F0BC704707
:103FE000000001400008005800040048036919421D
:103FF00001D001207047002070470AB181617047ED
:1040000081627047024A136843F4807313607047FB
:1040100000040058024B186800F4C060704700BFED
:1040200000040058074AD36823F4E0631B041B0C08
:10403000000200F4E060034343F0BF6343F4003345
:10404000D360704700ED00E030B4174BDB68C3F37A
:104050000223C3F10704042C28BF04241D1D062DD0
:1040600018D9033B4FF0FF3505FA04F421EA0401A7
:10407000994005FA03F322EA0303194300280BDBF6
:104080000901C9B200F1604000F5614080F80013F9
:1040900030BC70470023E5E700F00F000901C9B20A
:1040A000024B1954F4E700BF00ED00E014ED00E00E
:1040B0000138B0F1807F0AD2064B5860064AF021E1
:1040C00082F823100020986007221A6070470120B0
:1040D000704700BF10E000E000ED00E0114B1B78DE
:1040E0000BB90120704710B50446FEF75BFF0D4B7E
:1040F0001A784FF47A73B3FBF2F3B0FBF3F0FFF7E7
:10410000D7FF68B90F2C01D901200AE0002221460F
:104110004FF0FF30FFF798FF034B1C60002000E0DA
:10412000012010BD760000207800002010B5094A5B
:10413000136843F4807313600320FFF773FF0020BC
:10414000FFF7CCFF10B10124204610BD0446FEF756
:10415000E1F8F9E700400058034B1B78034A116867
:104160000B441360704700BF76000020040200205B
:10417000014B1868704700BF04020020014B18680B
:10418000704700BF7800002038B50446FFF7F0FF05
:104190000546B4F1FF3F02D0044B1B781C44FFF7E7
:1041A000E7FF401BA042FAD338BD00BF76000020D5
:1041B000164AD2F8883043F47003C2F888304FF0C2
:1041C000B0431A6842F001021A604FF4E0229A608C
:1041D0001968A2F1A262A2F205120A401A60D3F88D
:1041E000942022F00502C3F89420D3F8982022F0FE
:1041F0000102C3F89820064ADA601A611A6822F4AC
:1042000080221A6000229A61704700BF00ED00E032
:104210000010042200B583B001904FF6FF73012215
:1042200001A90348FEF7D7FB019803B05DF804FB32
:104230007401002070B50C4616460025B54205DA1B
:1042400014F8010BFFF7E6FF0135F7E7304670BDC4
:1042500010B582B00C46FF280ED00D4B03EBC0000A
:1042600003C802AB03E903002246BDF8041000981E
:10427000FFF7C3FE02B010BD0020FFF7E9FF2146A3
:104280000120FFF7E5FF21460220FFF7E1FFF1E7FC
:104290008000002000B589B00023049305930693A5
:1042A000079301930293039314484FF080420260F6
:1042B000436083604FF0FF32C26003618361FEF7A9
:1042C00091F890B94FF48053049304A90B48FEF77A
:1042D000C5F868B900230193039301A90748FEF7C5
:1042E0003DF940B909B05DF804FBFDF701FEE9E7CF
:1042F000FDF7FEFDEEE7FDF7FBFDF3E7080200200A
:104300000368B3F1804F00D0704782B04FF0B043E4
:104310009A6D42F001029A659B6D03F001030193CF
:10432000019B02B07047D458C4500433C4188C4267
:10433000F9D37047036004308842FBD37047000014
:104340000C488546FFF734FF0B480C490C4A002304
:10435000FFF7ECFF0B480C490023FFF7EDFF0B487C
:104360000B490023FFF7E8FFFBF72EFFFDF71AFECE
:10437000FEE7000000000320080000209800002055
:10438000A8450008980000205802002000000320E3
:1043900000000320FEE70000F8B500BFF8BC08BC31
:1043A0009E467047F8B500BFF8BC08BC9E467047F3
:1043B0001200000024000000360000004000000051
:1043C000060000000C0000001000000000000000CB
:1043D0000100000002000000030000000C000020AB
:1043E00000000000000000000000000000000000CD
:1043F00000000000000000000000000000000000BD
:1044000000000000000000000000000000000000AC
:10441000000000000000000000000000000000009C
:10442000000000000000000000000000000000008C
:10443000000000000000000000000000000000007C
:104440007472616E736D69747465722073746172D5
:1044500074730A0D00000000707573686564206253
:104460007574746F6E0A0D005265636569766572C6
:1044700020737461727473210A0D000072656365A4
:1044800069766564206D6573736167653A2025738D
:104490000A0D0000010002000400060008000A00E6
:1044A0000C001000200040008000000108040204FD
:1044B00008010101010101030701000001000000E2
:1044C00003000000050000000100000001000000E2
:1044D000060000000A0000002000000002000000AA
:1044E0000400000008000000100000004000000070
:1044F0008000000000010000000200000000000039
:1045000000000000000000000000000001000000AA
:10451000020000000300000004000000A08601006B
:10452000400D0300801A060000350C0040420F00C9
:1045300080841E0000093D0000127A000024F4006F
:1045400000366E010048E801006CDC02000000004B
:10455000000000000000000000000000232D302BB0
:1045600020000000686C4C00656667454647000007
:104570003031323334353637383941424344454699
:10458000000000003031323334353637383961625B
:08459000636465660000000091
:0845980090D6FF7F0100000036
:0445A000A901000865
:0445A4008101000889
:1045A8000C0000200000000020440008004400081F
:1045B800E0430008000000000000000000000000C8
:1045C80000000000000000000000000000000000E3
:1045D80000000000000000000000000000000000D3
:1045E80000000000000000000000000000000000C3
:1045F80000000000000000000000000000000000B3
:10460800000000000A0D2070696E670A0D000100A5
:104618001000000000093D000004004802000000EE
:1046280000040048010000000004004820000000C9
:04000005080043416B
:00000001FF
