:020000040800F2
:1000000000000320C1480008B1280008B3280008F8
:10001000B5280008B7280008B9280008000000002B
:10002000000000000000000000000000BB280008E5
:10003000BD28000800000000BF280008C1280008F3
:100040001549000815490008154900081549000818
:100050001549000815490008154900081549000808
:1000600015490008154900081549000815490008F8
:1000700015490008154900081549000815490008E8
:1000800015490008154900081549000815490008D8
:1000900015490008154900081549000815490008C8
:1000A00015490008154900081549000815490008B8
:1000B00015490008154900081549000815490008A8
:1000C0001549000815490008154900081549000898
:1000D0001549000815490008154900081549000888
:1000E0001549000815490008154900081549000878
:1000F0001549000815490008154900081549000868
:100100001549000815490008154900081549000857
:100110001549000815490008154900081549000847
:100120001549000815490008154900081549000837
:0C01300015490008154900081549000891
:100140000348044B834202D0034B03B11847704766
:1001500090000020900000200000000005480649A3
:100160000B1AD90F01EBA301491002D0034B03B1C5
:100170001847704790000020900000200000000009
:1001800010B5064C237843B9FFF7DAFF044B13B1DF
:100190000448AFF300800123237010BD90000020BD
:1001A000000000001849000808B5044B1BB10449C1
:1001B0000448AFF30080BDE80840CFE7000000002E
:1001C000940000201849000870B50D4E0D4D761BA7
:1001D000B61006D0002455F8043B01349847A642D7
:1001E000F9D1094E094D761B04F096FBB61006D0E6
:1001F000002455F8043B01349847A642F9D170BD5C
:10020000684B0008684B00086C4B0008684B0008FE
:10021000830730B548D0541E002A3FD0CAB20346E7
:1002200001E0013C3AD303F8012B9D07F9D1032CDF
:100230002DD9CDB245EA05250F2C45EA054536D91D
:10024000A4F1100222F00F0C03F1200EE6444FEA55
:10025000121C03F1100242E9045542E90255103222
:100260007245F8D10CF1010214F00C0F03EB0212ED
:1002700004F00F0C13D0ACF1040323F00303043398
:10028000134442F8045B9342FBD10CF003042CB1FD
:10029000CAB21C4403F8012B9C42FBD130BD64461A
:1002A0001346002CF4D1F9E703461446BFE71A467B
:1002B000A446E0E70EB410B5044683B008B18369E4
:1002C0005BB106ABA168059A0193204600F04EFF92
:1002D00003B0BDE8104003B0704700F055FDF0E7F3
:1002E0000FB410B50A4B1C6882B00CB1A3695BB1A6
:1002F00005ABA168049A0193204600F037FF02B0D5
:10030000BDE8104004B07047204600F03DFDEFE727
:10031000080000202DE9F0410E460746002833D0A2
:1003200083697BB384682F4B9C4237D02E4B9C4211
:100330003FD02E4B9C4208BFFC68A3891B0731D5D8
:1003400023697BB33578B0463DB934E023685A1C45
:1003500022601D7018F8015F6DB3A368013B002B8C
:10036000A360F3DAA669B34229462246384601DB88
:100370000A2DEBD100F032FA0130EBD14FF0FF3013
:10038000BDE8F08100F000FDBB69BC68002BCAD15C
:10039000384600F0F9FC134B9C42C7D17C68A38916
:1003A0001B07CDD42146384600F07CFA0028C9D07E
:1003B000E4E7BC68C1E7A368013B002BA36009DA4E
:1003C00022460A21384600F009FA0130D6D00A2028
:1003D000BDE8F08123680A22591C21601A7010467A
:1003E000BDE8F081A0490008804900086049000884
:1003F000024B01461868FFF78DBF00BF08000020C0
:10040000A2EB0300704700BF02780B78012A28BFD7
:100410009A42F5D16DE9044540EA0104CDE902674D
:100420006FF0000C4FEA447212B380EA010414F03A
:10043000070F6AD100F0070420F0070004F003055D
:1004400021F007014FEAC505F0E8042314F0040F7A
:10045000F1E804670CFA05F462EA040266EA0406AD
:100460000AD063EA0403624667EA0407664603E0CB
:10047000F0E80423F1E8046782FA4CF582EA060406
:10048000A4FA8CF46CBB83FA4CF583EA0705A5FA51
:100490008CF595B950E9022351E9026782FA4CF5CF
:1004A00082EA0604A4FA8CF483FA4CF583EA070581
:1004B000A5FA8CF52543DBD09CB92DBAB5FA85F4A5
:1004C00024F0070427FA04F1DDE9026723FA04F3B4
:1004D00003F0FF0001F0FF01FDE80445A0EB01007F
:1004E000704724BAB4FA84F424F0070426FA04F11D
:1004F000DDE9026722FA04F202F0FF0001F0FF01D9
:10050000FDE80445A0EB0100704714F0030F3CD157
:1005100010F0030428D150F8082B51F8083B82FA58
:100520004CF582EA0305A5FA8CF55DB950F8042C68
:1005300051F8043C82FA4CF582EA0305A5FA8CF5E1
:10054000002DE8D02DBAB5FA85F424F0070423FA7B
:1005500004F122FA04F202F0FF0001F0FF01FDE8CD
:100560000445A0EB010070474FEAC40420F00300EB
:1005700050F8082B21F0030151F8083B0CFA04F461
:1005800062EA040263EA0403C9E710F003041AD024
:10059000A1EB040120F00300E40750F8042B06D07F
:1005A0000FD28B785FFAA2F4E41A06D12BB1CB7884
:1005B0005FFAB2F4E41A00D11BB920465DF8104B83
:1005C000704701F1040150F8042BCC0721F003011E
:1005D00051F8043B48D824D222F07F4482FA4CF5EB
:1005E00094EA1325A5FA8CF50AD165B951F8043BB4
:1005F00084EA0204B4EB036F0ED150F8042BEBE74E
:100600004FEA132355E035F07F454DD10878FDE8DA
:100610000445C0F1000070474FEA126203F0FF0387
:1006200047E002EA1C4482FA4CF594EA1345A5FA25
:100630008CF50AD165B951F8043B84EA0204B4EBA5
:10064000034F0CD150F8042BEBE74FEA134330E093
:1006500015EA1C4528D10B884FEA124229E04FEADF
:10066000124203EA1C4324E002F0FF0482FA4CF534
:1006700094EA1365A5FA8CF50AD165B951F8043BE3
:1006800084EA0204B4EB032F09D150F8042BEBE702
:100690004FEA13630DE015F0FF0F05D10B684FEA29
:1006A000122223F07F4304E04FF00000FDE80445F0
:1006B000704712BA1BBA82FA4CF482EA0304A4FA15
:1006C0008CF5B5FA85F402FA04F203FA04F34FEA62
:1006D0001260FDE80445A0EB1360704700000000C5
:1006E000000000000000000000000000000000000A
:1006F00000000000000000000000000000000000FA
:1007000090F800F06DE9024520F007016FF0000C51
:1007100010F0070491F820F040F049804FF00004F9
:100720006FF00700D1E9002391F840F000F10800D4
:1007300082FA4CF2A4FA8CF283FA4CF3A2FA8CF30C
:100740004BBBD1E9022382FA4CF200F10800A4FA73
:100750008CF283FA4CF3A2FA8CF3E3B9D1E90423C7
:1007600082FA4CF200F10800A4FA8CF283FA4CF3FE
:10077000A2FA8CF37BB9D1E9062301F1200182FAB8
:100780004CF200F10800A4FA8CF283FA4CF3A2FABE
:100790008CF3002BC6D0002A04BF04301A4612BACC
:1007A000B2FA82F2FDE8024500EBD2007047D1E9CF
:1007B000002304F00305C4F100004FEAC50514F05E
:1007C000040F91F840F00CFA05F562EA05021CBF2F
:1007D00063EA050362464FF00004A9E7F8B50D4649
:1007E0001446064608B1836943B3254B9C422AD080
:1007F000244B9C4229D0244B9C4208BFF468A38917
:10080000A269A2601A0722D5236903B3226861692D
:10081000D31AEDB299422F4629DD0133A16801397F
:10082000A160511C2160157062699A4216D0A3899B
:10083000DB0701D50A2D11D03846F8BD00F0A4FA27
:100840000F4B9C42D4D17468D9E7B468D7E72146EE
:10085000304600F027F838B92369D7E721463046FB
:1008600000F02CF90028E7D04FF0FF37E4E72146ED
:10087000304600F023F90028F6D122680123CDE7A5
:10088000A0490008804900086049000810B4044CE1
:1008900003460A4620685DF8044B1946FFF79EBFE1
:1008A000080000203C4B70B51D6806460C460DB193
:1008B000AB69E3B1394B9C421FD0394B9C424DD0C0
:1008C000384B9C4208BFEC68B4F90C3018079AB258
:1008D00019D5216911B312F001002FD00020A060BA
:1008E00060694042A06100292ED0002070BD2846DA
:1008F00000F04AFA294B9C42DFD16C68B4F90C3005
:1009000018079AB2E5D4D1063ED5520728D42169FA
:1009100043F00803A3819AB20029DCD102F42070CD
:10092000B0F5007FD7D02146304600F091FAB4F9F7
:100930000C3021699AB212F00100CFD1950758BF4F
:100940006069A0600029D0D1120658BF0846CDD5F5
:1009500043F04003A3814FF0FF3070BDAC68B3E7B4
:10096000616B51B104F14402914204D0304600F071
:10097000FDFAB4F90C300022626321690022C4E957
:10098000001223F02403C3E7092243F0400332603E
:100990004FF0FF30A38170BD08000020A04900087F
:1009A00080490008604900088B891A072DE9F04149
:1009B0000C4680463FD44A68002A58DDE66A002E7D
:1009C00052D00022D8F80050C8F8002013F480520A
:1009D00051D10123216A4046B047431C5ED0A38910
:1009E000E66A5F0705D56368C01A636B0BB1236CB9
:1009F000C01A216A024600234046B047411C3CD140
:100A0000D8F80030002B38D01D2B01D0162B4DD13B
:100A100023690022C4E90032616BC8F8005019B3A1
:100A200004F14403994202D0404600F09FFA0020AE
:100A30006063BDE8F0810E69B6B10D680E609A077B
:100A40000CBF4B690023AD1B8B600BE02B4632467D
:100A5000216AA76A4046B847B0F1000CA5EB0C0527
:100A6000664413DD002DF1DC0020BDE8F0810A6C46
:100A7000002AA3DCF8E7606DB3E700236360236915
:100A80002360A389DB04C7D56065C5E7A38943F06C
:100A900040034FF0FF30A381BDE8F081D8F800306B
:100AA000002B9CD01D2B06D0162B04D0A38943F01D
:100AB0004003A381D9E7C8F80050D5E738B50B69E2
:100AC000BBB10D46044608B18369B3B10D4B9D42DD
:100AD00011D00D4B9D4213D00C4B9D4208BFE568D1
:100AE000B5F90C302BB129462046BDE83840FFF758
:100AF0005BBF002038BD6568F2E700F045F9E5E727
:100B0000A568EDE7A0490008804900086049000891
:100B100038B540B303690446E3B1174B1D680DB106
:100B2000AB69CBB1154B9C420FD0154B9C4221D0E9
:100B3000144B9C4208BFEC68B4F90C3053B1214609
:100B40002846BDE83840FFF72FBF6C68B4F90C3079
:100B5000002BF4D1002038BD284600F015F9074BD2
:100B60009C42E2D1F1E7084B08491868BDE83840DB
:100B700000F04AB9AC68DFE708000020A04900088F
:100B800080490008604900085C490008BD0A000867
:100B900000207047014900F037B900BFBD0A0008C6
:100BA0000020704770B568224D1E02FB05F50E4609
:100BB00005F1740100F03CFA044640B100210C300C
:100BC000C4E90016A06005F16802FFF721FB20468A
:100BD00070BD00BF274B2DE9F0411E68B369074681
:100BE00053B348364FF00408D6E90134013B04D52D
:100BF0001EE05A1C04F168041AD0B4F90C50013BF1
:100C0000002DF6D11C4B6566C4E90055C4E90253BA
:100C1000C4E90455A5610822294604F15C00FFF7E8
:100C2000F7FAC4E90D55C4E912552046BDE8F08134
:100C300035682DB12E46D7E7304600F01FF8D0E7D3
:100C40004FF4D671384600F0F3F9044668B10560F8
:100C5000C0F804800C302946A06025464FF4D072BD
:100C6000FFF7D6FA34602E46BEE70C2330603B60B7
:100C7000DBE700BF5C4900080100FFFF2DE9F84FEA
:100C8000344B35491A68816290424FF00003C0E945
:100C90001233036504BF012383610546FFF79AFF02
:100CA00068602846FFF796FFA8602846FFF792FF86
:100CB0006F68E86000240423C7E902430822214644
:100CC000C7E90044C7E904447C66BC6107F15C00E5
:100CD000FFF79EFADFF88CB0AE68DFF88CA0DFF883
:100CE0008C90DFF88C801D4BC7F828A0C7E9087BE3
:100CF000C7F82C90C7F830800822F360C6E900449A
:100D0000C6E904447466B460B461214606F15C002F
:100D1000FFF77EFAC6E9086BC6E90AA9C6F8308073
:100D2000EE680F4BF360C6E90044C6E904447466FC
:100D3000B460B4612146082206F15C00FFF768FA4E
:100D40000123C6E9086BC6E90B98C6F828A0AB6179
:100D5000BDE8F88F5C490008950B00080900010008
:100D6000120002000D180008351800087518000858
:100D700095180008024B0349186800F045B800BFF9
:100D80005C490008BD0A0008836903B976E770472B
:100D9000704700BF704700BF704700BF704700BF7B
:100DA000024B0349186800F00FB800BF080000208C
:100DB000910B0008024B0349186800F005B800BF0A
:100DC00008000020A10B00082DE9F041884600F141
:100DD00048070026D7E90154013D0FD4A389012B10
:100DE00005F1FF3506D9B4F90E300133204601D0A4
:100DF000C04706436B1C04F16804EFD13F68002F25
:100E0000E8D13046BDE8F0812DE9F8430746884631
:100E100000F148064FF00009D6E90154013D11D414
:100E2000A389012B05F1FF3508D9B4F90E30013340
:100E3000214603D03846C04749EA00096B1C04F13B
:100E40006804EDD13668002EE6D14846BDE8F88347
:100E5000F0B58B890C46990797B007D504F1470385
:100E60000122C4E90432236017B0F0BDB4F90E10BA
:100E7000002905462DDB6A4600F038FD002827DBF7
:100E8000019E06F470464FF48067A6F50056B6FA48
:100E900086F639462846760900F0CAF830B3A389A9
:100EA0001A4AAA6243F08003C4E90407A3812060C0
:100EB000002ED9D0B4F90E10284600F0A5FE002867
:100EC000D2D0A38923F0030343F00103A381CBE72E
:100ED000A38913F0800F14BF40274FF48067394671
:100EE0002846002600F0A4F80028D8D1B4F90C3028
:100EF0009A05B9D423F0030304F1470243F0020337
:100F00000121C4E90421A3812260ADE7950B00080B
:100F100070B50C46B1F90E10002996B016461D4664
:100F200013DB6A4600F0E2FC00280EDB019901F4B5
:100F30007041A1F50051B1FA81F14FF48063490984
:100F400000202960336016B070BDB4F90C30002267
:100F50001B062A6004D540230020336016B070BD04
:100F60004FF480630020336016B070BD002958D064
:100F700030B551F8043C83B0002BA1F10404B8BF94
:100F8000E418019000F0D2FF284A0198136833B1A9
:100F9000A3420DD9216804EB010C63452FD0636097
:100FA000146003B0BDE8304000F0C2BFA34210D8C7
:100FB0001A465B68002BF9D1116802EB010C6445FD
:100FC00019D02FD36360546003B0BDE8304000F007
:100FD000AFBF116802EB010CA44516D022D82168DE
:100FE00004EB010C6345EDD11D685B682944C4E93D
:100FF00000135460D5E7236819441160D1E71D68D8
:101000005B682944C4E90013CAE7246821445418E2
:10101000A3421160C5D1D3E900432144C2E90013C2
:10102000BFE770470C230360BBE700BFAC000020A4
:10103000F8B5CD1C25F0030508350C2D38BF0C255F
:10104000002D064623DBA94221D8254F00F06EFF74
:101050003A6822B3144603E063682246FBB11C469B
:1010600023685B1BF8D40B2B15D8636894420CBF24
:101070003B605360304600F05BFF04F10B00231D22
:1010800020F00700C21A01D01B1AA350F8BD0C2390
:1010900033600020F8BD23601C442560EAE77968CE
:1010A000C9B12946304600F09FFB431C0CD0C41C3C
:1010B00024F00304A04205D0211A304600F094FB2E
:1010C000013001D02560D5E70C233046336000F0B5
:1010D0002FFF0020F8BD304600F086FB7860E0E787
:1010E000AC0000209368013B002B936011DA10B430
:1010F0009469A34209DB0A2907D01368581C1060C1
:10110000197008465DF8044B70475DF8044BFFF713
:1011100065BB1368581C106019700846704700BF03
:101120009BB1F8B5134406460F46541E5D1E01E000
:10113000AC4208D014F8011F3A463046FFF7D2FF00
:10114000431CF5D1F8BD0020F8BD0020704700BF5A
:10115000936810B5144613B95360184610BD00F0DB
:10116000DBFB0023C4E9013310BD00BF2DE9F04FC4
:1011700088469FB015461C46814618B18369002BEE
:1011800000F0A280924B984500F0A480914B9845C6
:1011900000F0B180904B984508BFD9F80C80B8F8A2
:1011A0000C30180740F19D80D8F81030002B00F06B
:1011B000988000230B932978884E059420238DF87E
:1011C000313030238DF832300127002974D02C467D
:1011D0000B4604E014F8013F002B00F08F80252B14
:1011E000F8D1B4EB050B40F08C802378002B63D052
:1011F00000234FF0FF32CDE90723069309938DF8C2
:101200005B301C93013404E0069A07FA03F313439E
:1012100006932546052214F8011B304600F020FDF8
:10122000831B0028F0D1069BD90644BF20228DF8ED
:101230005B2029781A0744BF2B228DF85B202A29CE
:1012400070D1059A1168043200290592C0F29B8082
:101250000991697801352E2976D0614C0322204608
:1012600000F0FEFC38B1069B001B402404FA00F09D
:1012700003430693013515F8011B5A488DF83010C9
:10128000062200F0EDFC002800F08380564B002B76
:101290006DD005AA0092554B424606A94846AFF3C9
:1012A00000800390039B013306D00B9B039A29789F
:1012B00013440B9300298AD1B8F80C305B0617D47D
:1012C0000B981FB0BDE8F08FFFF75EFD404B9845CF
:1012D0007FF45CAFD9F80480B8F80C3018073FF5FC
:1012E00063AF41464846FFF7DDFA00283FF461AF9F
:1012F0004FF0FF30E5E7D9F8088050E7B4EB050B75
:10130000DAD0AA46C5F1010503E0934536D91AF8AB
:10131000011F42464846FFF7E5FE013005EB0A0291
:10132000F3D1C9E7A1F13002092A94D8099B15F835
:10133000011F03EB830302EB4303A1F13002092AEF
:10134000F5D92E29099388D169782A292BD1059BB3
:10135000A9781A6807920433002A05F10200059360
:10136000B8BF4FF0FF330546B8BF079375E7059B3D
:10137000073323F007030833059396E70B9A237886
:101380005A440B9232E7494243F002030991069313
:101390005FE705AA0092154B424606A9484600F0B1
:1013A000CBF803907EE7A1F130020023092A0793CE
:1013B00005F101053FF651AF15F8011F03EB83035B
:1013C00002EB4303A1F13002092AF5D9079344E760
:1013D000A04900088049000860490008244B000823
:1013E0002C4B0008304B00080000000021110008C1
:1013F00010B4054C8446134620685DF8044B0A4639
:101400006146FFF7B3BE00BF080000202DE9F84F8A
:1014100092461F460A698B68DDF828909A42B8BF49
:101420001A46CAF8002091F843300C46064613B11C
:101430000132CAF80020226891065DD5DAF8003042
:101440000233CAF80030226812F0060F11461ED18E
:10145000E168CB1A002BD8BF114618DD04F1190B37
:101460004FF0000805E0E568DAF80030ED1A454570
:101470000CDD01235A4639463046C847013008F191
:101480000108F0D14FF0FF30BDE8F88F216894F8E3
:101490004330003B18BF01238A060AD5E1185A1CC5
:1014A000302081F84300224494F8451082F843101C
:1014B000023304F1430239463046C8470130E1D0D7
:1014C000236803F00603042B1DD0A368226993420E
:1014D00025DD4FF000089B1A98441A34002501E0DE
:1014E00045451CDA0123224639463046C8470130BB
:1014F00005F10105F4D1C5E712F0060F12D0003B4B
:1015000018BF0123D5E7DAF80030E1682269C91A6B
:10151000A368934221EAE178DDDC0029DDDC0020CC
:10152000BDE8F88FE168DAF80030CB1A002BD8BF9D
:10153000114693DCABE700BF2DE9F0470C4684B0C1
:101540009046227E0C990746994604F14300002AF2
:1015500033D0A2F15803DDB2202D67D8202B65D8F7
:10156000DFE813F0DE0064006400640064006400DF
:1015700064006400640064006400A3006E00640002
:101580006400640064006E00640064006400640031
:1015900021007F00C00064006400AE0064007F0092
:1015A00064006400E50023681A0640F104810B68BA
:1015B00062691D1D0D601B681A600023824623614D
:1015C000CDF80090434603AA21463846FFF71EFF98
:1015D000013020D02369524641463846C847013081
:1015E00019D02368E068039E9B0719D5831B002B45
:1015F00016DD04F1190A002504E0E068039E831B50
:10160000AB420DDD0123524641463846C847013002
:1016100005F10105F1D14FF0FF3004B0BDE8F087CE
:10162000B042B8BF304604B0BDE8F087012384F86B
:101630004220236104F1420A002384F84330BFE7CB
:1016400023681A0602D45E0600F1C1800D682A687C
:1016500004350D601546002A6BDBDFF884C10A26CD
:1016600010E023681D0640F19C800B681D1D0D6075
:101670001D68DFF86CC16F2A0CBF08260A260023FC
:1016800084F843306268A260002A7FDB236823F07D
:1016900004032360002D5BD1002A79D18246082EF5
:1016A00065D0A0EB0A0020618AE70B680122186868
:1016B00004330B6004F1420A84F842002261BBE764
:1016C0000B686268181D0860D3F800A0002150461E
:1016D00000F0C6FA002800F08180A0EB0A006060EC
:1016E0002061A9E7236843F0200323607822DFF814
:1016F000F4C084F845200A68151D0D601D0643D40A
:10170000590641D51588DE0744BF43F02003236006
:10171000002D44D1236823F0200323601026AEE778
:10172000582384F84530DFF8B8C02368E3E723681E
:10173000DCE76268A2602D21002AC5F1000584F86B
:10174000431002DB23F004032360DFF894C00A2671
:101750008246B5FBF6F306FB13512A461CF801102E
:101760000AF8011DB2421D46F3D2082E99D1236812
:10177000D90796D5626823699A4292DC30230AF829
:10178000013C0AF1FF3A8CE71568BCE7002DDFD178
:101790009CF8003084F8423004F1420A7FE71026BA
:1017A0006DE713F0400F0B6803F104050D600CBFEB
:1017B0001D681D885DE713F0400F0B68626903F137
:1017C00004050D601B6814BF1A801A60F5E60A68EC
:1017D000B2F9005004320A602A463CE760687FE7AD
:1017E000384B00084C4B000838B5074D0022044622
:1017F00008462A6000F00EFC431C00D038BD2B6860
:10180000002BFBD0236038BDB400002010B50C467F
:10181000B1F90E1000F0B6FB002803DB636D034442
:10182000636510BDA38923F48053A38110BD00BF5D
:10183000002070472DE9F0410C46B1F90C101F460D
:10184000CB05054616460BD421F48051A1813B46B9
:10185000B4F90E1032462846BDE8F04100F01EB83B
:10186000B4F90E100223002200F0E0F9B4F90C10D4
:10187000EAE700BF10B50C46B1F90E1000F0D6F93A
:10188000A389421C0EBF23F4805343F48053606548
:10189000A38110BDB1F90E1000F016B838B50C4692
:1018A000084D8446114620461A4600232B606446A4
:1018B00002F080FF431C00D038BD2B68002BFBD00A
:1018C000236038BDB400002038B5074D002204461F
:1018D00008462A6000F076FB431C00D038BD2B6818
:1018E000002BFBD0236038BDB400002070B50C463F
:1018F000084D03460026204611461C462E6000F087
:1019000069FB431C00D070BD2B68002BFBD023600B
:1019100070BD00BFB40000209368002B00F08580EC
:101920002DE9F04FB1F90C300C461907804683B011
:10193000174698B225D523691BB310F002033D6802
:101940002DD04FF0000ADFF8BCB25646B9465E45CE
:101950003346524628BF5B464046002E52D0216A8D
:10196000A76AB847002856DDD9F808301B1A824408
:10197000361AC9F80830002BE9D1002003B0BDE8C1
:10198000F08F21464046FEF78DFF002840F036815B
:10199000B4F90C303D6898B210F00203D1D110F0C8
:1019A000010944D14E46009746B38205D4F808B0E9
:1019B00040F18380B3455A4600F2B28010F4906F34
:1019C00040F0BF8020680192494600F033FAA368D6
:1019D000019AA3EB0B012368A1601344B246236074
:1019E0000026009B9868A0EB0A00D144986000286C
:1019F000C3D0B4F90C0080B2002ED6D1D5E9009640
:101A00000835D1E7D5E900A60835A0E721464046CC
:101A1000FFF754F880B3B4F90C3043F040034FF0B3
:101A2000FF30A38103B0BDE8F08F002070471E4651
:101A3000AA46994618461D46009756B388B34A46AB
:101A4000D4E904132068B24228BF3246884205D93F
:101A5000A16803EB010B5A4500F3A680934263DCB7
:101A6000216AA76A2A464046B847B0F1000BD2DD8A
:101A7000B9EB0B09CAD00120009A9368A3EB0B03C2
:101A80005D44A6EB0B069360002B3FF476AF002E6F
:101A9000D4D10AF1080353E902569A460833002EBE
:101AA000F9D032460A21284600F0DAF8002800F082
:101AB0009C800130A0EB0509C1E7206823699842AA
:101AC00016D86369B34213D86FF00042B24228BF00
:101AD0003246216A92FBF3F2A76A02FB03F3404607
:101AE0004A46B847B0F1000A95DDA6EB0A0678E74A
:101AF000B345DA4628BFB2465246494600F09AF945
:101B0000A3682268A3EB0A035244A3602260002B5F
:101B1000EBD121464046FEF7D1FF0028E5D07AE719
:101B20002068B34632464EE72946019200F082F91A
:101B3000019AA3689B1AA360236813442360934609
:101B400096E723682169A3EB010B636903EB430A62
:101B50000AEBDA7A0BF101034FEA6A0A3344534580
:101B6000524684BF9A46524643052CD511464046FC
:101B7000FFF75EFA00283BD05A462169019000F039
:101B8000BFF8A289019B22F4906242F08002A281F8
:101B900003EB0B002361AAEB0B03C4F814A0A360B2
:101BA0002060B34632460EE729465A4600F042F915
:101BB00023685B44236021464046FEF77FFF0028F0
:101BC0003FF456AF27E7404600F0B4F9034600283B
:101BD000DED121694046FFF7C9F9B4F90C300C2277
:101BE00023F08003C8F8002017E7721C914627E70E
:101BF0000C22B4F90C30C8F800200EE74FF0FF308B
:101C0000BCE600BF00FCFF7F38B5074D002204464C
:101C100008462A6000F0E6F9431C00D038BD2B6866
:101C2000002BFBD0236038BDB400002038B50C4633
:101C3000084D8446114620461A4600232B60644610
:101C400000F0D8F9431C00D038BD2B68002BFBD026
:101C5000236038BDB4000020000000000000000038
:101C600001F0FF01102A2BDB10F0070F08D010F84D
:101C7000013B013A8B422DD010F0070F42B3F6D151
:101C8000F0B441EA012141EA014122F007047FF06A
:101C900000070023F0E80256083C85EA010586EAC1
:101CA000010685FA47F5A3FA87F586FA47F6A5FAFD
:101CB00087F68EB9EED1F0BC01F0FF0102F0070209
:101CC00032B110F8013B013A83EA010313B1F8D1B4
:101CD0000020704701387047002D06BF3546033895
:101CE000073815F0010F07D1013015F4807F02BFCE
:101CF000013015F4C03F0130F0BC0138704700BF1F
:101D0000844641EA000313F003036DD1403A41D306
:101D100051F8043B40F8043B51F8043B40F8043BC5
:101D200051F8043B40F8043B51F8043B40F8043BB5
:101D300051F8043B40F8043B51F8043B40F8043BA5
:101D400051F8043B40F8043B51F8043B40F8043B95
:101D500051F8043B40F8043B51F8043B40F8043B85
:101D600051F8043B40F8043B51F8043B40F8043B75
:101D700051F8043B40F8043B51F8043B40F8043B65
:101D800051F8043B40F8043B51F8043B40F8043B55
:101D9000403ABDD2303211D351F8043B40F8043BF5
:101DA00051F8043B40F8043B51F8043B40F8043B35
:101DB00051F8043B40F8043B103AEDD20C3205D305
:101DC00051F8043B40F8043B043AF9D2043208D0FD
:101DD000D2071CBF11F8013B00F8013B01D30B886F
:101DE00003806046704700BF082A13D38B078DD04D
:101DF00010F003038AD0C3F10403D21ADB071CBF1F
:101E000011F8013B00F8013B80D331F8023B20F888
:101E1000023B7BE7043AD9D3013A11F8013B00F8C1
:101E2000013BF9D20B7803704B7843708B78837049
:101E30006046704788420DD98B1883420AD900EB5F
:101E4000020CBAB1624613F801CD02F801CD9942F5
:101E5000F9D170470F2A0ED8034602F1FF3C4AB170
:101E60000CF1010C013B8C4411F8012B03F8012FFC
:101E70006145F9D1704740EA01039B0750D1A2F1B7
:101E8000100370B501F1200C23F00F0501F1100EC5
:101E900000F11004AC441B095EF8105C44F8105CBF
:101EA0005EF80C5C44F80C5C5EF8085C44F8085C76
:101EB0005EF8045C44F8045C0EF1100EE64504F193
:101EC0001004E9D1013312F00C0F01EB031102F001
:101ED0000F0400EB031327D0043C24F003064FEA61
:101EE000940C1E441C1F8E465EF8045B44F8045F8D
:101EF000B442F9D10CF1010402F0030203EB8403B4
:101F000001EB840102F1FF3C4AB10CF1010C013BF1
:101F10008C4411F8012B03F8012F6145F9D170BDF4
:101F200002F1FF3C03469BE72246EBE7704700BF08
:101F3000704700BFF8B51446F9B1CAB106460D4660
:101F400000F036F8A04202D32F463846F8BD2146AD
:101F50003046FFF76DF807460028F6D0224629469E
:101F6000FFF7CEFE30462946FFF700F83846F8BDA9
:101F70002746FEF7FBFF3846F8BDBDE8F84011469E
:101F8000FFF756B838B50C46084D84461146204632
:101F90001A4600232B60644600F034F8431C00D03E
:101FA00038BD2B68002BFBD0236038BDB400002067
:101FB00051F8040C0028A0F10400BCBF0B58C01855
:101FC000704700BF024B58221A604FF0FF30704735
:101FD000B4000020024B58221A604FF0FF307047C7
:101FE000B4000020024B58221A600020704700BF46
:101FF000B4000020024B58221A604FF0FF307047A7
:10200000B4000020024B58221A604FF0FF30704796
:10201000B4000020044A05491368002B08BF0B4692
:102020001844106018467047B800002010030020C4
:1020300053B94AB9002908BF00281CBF4FF0FF312F
:102040004FF0FF3000F074B9ADF1080C6DE904CE2B
:1020500000F006F8DDF804E0DDE9022304B0704783
:102060002DE9F047089D04468E46002B4DD18A424B
:10207000944669D9B2FA82F252B101FA02F3C2F17E
:10208000200120FA01F10CFA02FC41EA030E94400F
:102090004FEA1C48210CBEFBF8F61FFA8CF708FB30
:1020A00016E341EA034306FB07F199420AD91CEB08
:1020B000030306F1FF3080F01F81994240F21C813A
:1020C000023E63445B1AA4B2B3FBF8F008FB103382
:1020D00044EA034400FB07F7A7420AD91CEB0404B7
:1020E00000F1FF3380F00A81A74240F20781644487
:1020F000023840EA0640E41B00261DB1D44000230C
:10210000C5E900433146BDE8F0878B4209D9002D6F
:1021100000F0EF800026C5E9000130463146BDE8F9
:10212000F087B3FA83F6002E4AD18B4202D3824263
:1021300000F2F980841A61EB030301209E46002D12
:10214000E0D0C5E9004EDDE702B9FFDEB2FA82F267
:10215000002A40F09280A1EB0C014FEA1C471FFAC5
:102160008CFE0126200CB1FBF7F307FB131140EAAC
:1021700001410EFB03F0884208D91CEB010103F179
:10218000FF3802D2884200F2CB804346091AA4B23B
:10219000B1FBF7F007FB101144EA01440EFB00FE0F
:1021A000A64508D91CEB040400F1FF3102D2A64574
:1021B00000F2BB800846A4EB0E0440EA03409CE713
:1021C000C6F12007B34022FA07FC4CEA030C20FAC0
:1021D00007F401FA06F31C43F9404FEA1C4900FAE0
:1021E00006F3B1FBF9F8200C1FFA8CFE09FB18115D
:1021F00040EA014108FB0EF0884202FA06F20BD9D0
:102200001CEB010108F1FF3A80F08880884240F21F
:102210008580A8F102086144091AA4B2B1FBF9F063
:1022200009FB101144EA014100FB0EFE8E4508D95E
:102230001CEB010100F1FF346CD28E456AD90238E3
:10224000614440EA0840A0FB0294A1EB0E01A142C8
:10225000C846A64656D353D05DB1B3EB080261EB36
:102260000E0101FA07F722FA06F3F1401F43C5E910
:10227000007100263146BDE8F087C2F12003D84046
:102280000CFA02FC21FA03F3914001434FEA1C4788
:102290001FFA8CFEB3FBF7F007FB10360B0C43EA7A
:1022A000064300FB0EF69E4204FA02F408D91CEB2A
:1022B000030300F1FF382FD29E422DD90238634428
:1022C0009B1B89B2B3FBF7F607FB163341EA0341C8
:1022D00006FB0EF38B4208D91CEB010106F1FF3817
:1022E00016D28B4214D9023E6144C91A46EA00460E
:1022F00038E72E46284605E70646E3E61846F8E6A0
:102300004B45A9D2B9EB020864EB0C0E0138A3E7E8
:102310004646EAE7204694E74046D1E7D0467BE7C9
:10232000023B614432E7304609E76444023842E741
:10233000704700BF72B6FEE700B59BB0482200218F
:1023400008A8FDF765FF002301930293039304930C
:1023500005930693079318490A6822F4C06242F471
:1023600000720A600A6802F4C0620092009A0322B6
:1023700008924FF4803209924FF480720B924022FF
:102380000C92139308A801F0F7F888B96F23019312
:102390000223029300230393049305930693079368
:1023A000012101A801F07EFC20B91BB05DF804FBFF
:1023B000FFF7C0FFFFF7BEFF0004005800B595B05F
:1023C000502200216846FDF723FF4FF4005300938D
:1023D000684601F092FE10B915B05DF804FBFFF7F6
:1023E000A9FF000008B57D4B01221A6002F072F9C6
:1023F000FFF7A2FFFFF7E2FF00F01AF900F0ACF9D7
:1024000000F076F902F006FA36E0754A0021D15460
:102410000133744A1360734B1B68632BF5DD714BFA
:1024200000221A6005E0704A0021D15401336D4A40
:1024300013606C4B1B68092BF5DD6A4B00221A6098
:1024400005E06A4A0021D1540133664A1360654BA6
:102450001B68012BF5DD624C4FF47A736422214630
:10246000634800F001FE5F4B00221A60214661487C
:10247000FDF736FF23781BB95A4B00221A60CAE7D2
:10248000584B00221A605648FEF73AF9554B1B6824
:10249000984209D9524AD25C2A2A05D05649CA54D0
:1024A0000133504A1360EEE754495348FDF7ACFF3F
:1024B0000028E1D15248FDF713FF524B00221A6069
:1024C000484A13680133136008E04E480268464CDE
:1024D000A154013202600133424A13604048FEF7C2
:1024E0000FF9404B1B68984203D93D4AD15C2A2919
:1024F000EBD1444B00221A603B494348FDF7F0FE04
:10250000384A1368013313603548FEF7F9F8354B44
:102510001B6898420DD9324AD15C2A2909D0394822
:102520000268324CA1540132026001332D4A13601B
:10253000EAE72E493548FDF7D3FE354D2A4C2946AA
:102540002046FDF761FF01463248FDF7C9FE2946E6
:102550002046FDF759FFB8B12F492348FDF754FF36
:1025600020B32E492048FDF74FFF002884D12C4886
:10257000FDF73EFF2B491D48FDF746FF40BB0021FC
:10258000012002F025F977E72748FDF731FF2549BB
:102590001648FDF739FF20B90021084602F018F966
:1025A0006AE70121002002F013F965E71F48FDF7F3
:1025B0001FFF1C490D48FDF727FF20B9002102200D
:1025C00002F006F958E70121022002F001F953E771
:1025D0000121084602F0FCF84EE700BF3801002058
:1025E0003C010020200100202801002034010020AF
:1025F00030020020C0490008BC000020D849000873
:10260000E449000824010020F8490008004A0008B5
:102610000C4A0008144A0008304A0008444A0008DE
:102620004C4A00082C4A0008204A0008384A000892
:1026300070B58AB000240594069407940894099410
:102640004FF0B043DA6C42F00402DA64DA6C02F064
:1026500004020492049ADA6C42F00102DA64DA6C41
:1026600002F001020392039ADA6C42F00202DA6489
:10267000DA6C02F002020292029ADA6C42F008026C
:10268000DA64DB6C03F008030193019B154E2246CC
:102690002321304601F084FF02230593032506958C
:1026A000079405A94FF0904001F0B6FE1023059362
:1026B0000694079405A90C4801F0AEFE2323059368
:1026C000012306930794089405A9304601F0A4FE5F
:1026D00005950694079405A9044801F09DFE0AB0EB
:1026E00070BD00BF0004004800080048000C00480E
:1026F00008B51748174B03604FF416534360002387
:102700008360C36003610C224261836103624362A0
:102710008362436600F078FD70B900210C4800F038
:10272000ECFD60B900210A4800F00CFE50B90848E1
:1027300000F0C4FD48B908BDFFF7FCFDEDE7FFF769
:10274000F9FDEFE7FFF7F6FDF1E7FFF7F3FDF2E73D
:10275000A00100200080004008B51748174B036017
:102760004FF4E133436000238360C36003610C22B4
:1027700042618361C36103624362836200F044FD8E
:1027800070B900210C4800F0B8FD60B900210A487A
:1027900000F0D8FD50B9084800F090FD48B908BDD8
:1027A000FFF7C8FDEDE7FFF7C5FDEFE7FFF7C2FD57
:1027B000F1E7FFF7BFFDF2E73002002000380140EB
:1027C00010B59EB00446002119911A911B911C91DD
:1027D0001D91502205A8FDF71BFD2368314A934245
:1027E00004D0314A93422FD01EB010BD022305936E
:1027F00000230C9305A801F080FC10BB4FF0B04300
:10280000DA6D42F00102DA65DA6D02F0010202923D
:10281000029ADA6C42F00102DA64DB6C03F0010325
:102820000193019B0C23199302231A9300231B93FA
:102830001C9308231D9319A94FF0904001F0ECFD63
:10284000D2E7FFF777FDD9E70123059300230B9328
:1028500005A801F052FC10BB4FF0B0431A6E42F4D1
:1028600080421A661A6E02F480420492049ADA6C6C
:1028700042F00202DA64DB6C03F002030393039B71
:10288000C023199302231A9301231B9300231C9343
:1028900007231D9319A9054801F0BEFDA4E7FFF722
:1028A00049FDD9E70080004000380140000400489D
:1028B000FEE7FEE7FEE7FEE7FEE77047704770477A
:1028C00008B501F01DFF08BD704730B4036A056A02
:1028D00025F001050562846924F0F00444EA02143D
:1028E00023F00A030B438461036230BC704730B4A9
:1028F000056A25F0100505628469036A24F47044B2
:1029000044EA023423F0A00343EA01138461036222
:1029100030BC7047836823F4401323F070030B43EB
:1029200043F007038360704703681A4A904202D05D
:10293000B0F1804F03D123F070034A681343154A66
:1029400090420AD0B0F1804F07D002F5C0529042B9
:1029500003D002F58062904203D123F44073CA6829
:10296000134323F080034A69134303608B68C362F7
:102970000B688362074B984207D003F5C053984217
:1029800003D003F58063984201D10B6903630123EF
:1029900043617047002C014060B310B5044690F8C5
:1029A0003D3013B3022384F83D30214651F8040B27
:1029B000FFF7BAFF012384F8483084F83E3084F8EA
:1029C0003F3084F8403084F8413084F8423084F855
:1029D000433084F8443084F8453084F8463084F835
:1029E000473084F83D30002010BD80F83C3001F0C5
:1029F00047FFD7E70120704710B4846824F47F4470
:102A000042EA03220A43224382605DF8044B704786
:102A100090F83C30012B76D010B50446012380F8A5
:102A20003C30022380F83D3002689068374B034009
:102A300093600B68602B4CD029D8402B54D00CD914
:102A4000502B22D1CA6849682068FFF73EFF502109
:102A50002068FFF75FFF002005E0202B0DD009D98B
:102A6000302B0AD00120012384F83D30002384F864
:102A70003C3010BD0BB1102B05D119462068FFF773
:102A800049FF0020EFE70120EDE70120EBE7B3F578
:102A9000805F34D0B3F5005F0CD1CB684A68896899
:102AA0002068FFF7A9FF2268936843F4804393608E
:102AB0000020D8E7702B24D1CB684A688968206849
:102AC000FFF79AFF2268936843F077039360002032
:102AD000C9E7CA6849682068FFF709FF60212068D4
:102AE000FFF718FF0020BEE7CA6849682068FFF7B3
:102AF000ECFE40212068FFF70DFF0020B3E7002027
:102B0000B1E70120AFE70220704700BF8800CEFF89
:102B100090F83C30012B2BD030B4012380F83C30AE
:102B2000022380F83D30026853689568114CA24238
:102B300019D023F070030C682343536003680D4AD7
:102B4000934202D0B3F1804F04D125F080058A680A
:102B500015439D60012380F83D30002380F83C3010
:102B6000184630BC704723F470034C682343E0E7F9
:102B700002207047002C01402DE9F0410446016815
:102B800083680269134342691343C26913430868A7
:102B90008F4A024013430B602268536823F440536A
:102BA000E1680B435360A16922688A4B9A4201D0C5
:102BB000236A1943936823F06E4323F430630B4375
:102BC00093602268D36A23F00F03616A0B43D362D8
:102BD0002268814B9A4219D07E4B9A422AD0102308
:102BE0007C498A4245D0E069B0F5004F00F0828010
:102BF000013B072B00F2E680DFE813F0AC00AA00EF
:102C0000E400CE00E400E400E400D1004FF0B04363
:102C1000D3F8883003F00303032B09D8DFE803F06F
:102C200002041F060123DBE70423D9E70823D7E7C3
:102C30001023D5E74FF0B043D3F8883003F4406356
:102C4000B3F5006F0DD005D86BB1B3F5806F0CD123
:102C50000423C5E7B3F5406F09D10823C0E7022379
:102C6000BEE70223BCE70023BAE71023B8E710232E
:102C7000B6E7082B00F29680DFE803F008943A9458
:102C80003794949405004FF4004004E001F03CF9BF
:102C9000002800F08980626A504B33F81220B0FBA4
:102CA000F2F3656805EB450199427FD8B3EB053F28
:102CB0007ED84FF0000892B200234146FFF7B8F9E2
:102CC0000F0247EA1067060268082A464346301892
:102CD00047F10001FFF7ACF9A0F54072404B9A4272
:102CE00068D82368D86040464CE000F0D5FBCFE7B9
:102CF0003C48D0E7013B072B5ED8DFE803F0060431
:102D00005D265D5D5D0A374803E001F00FF900289C
:102D100054D0626A314B33F81230B0FBF3F0626882
:102D2000530803EB4000B0FBF2F080B2A0F11002B8
:102D30004FF6EF739A4243D820F00F03C0F34200DE
:102D400018432368D86000201CE000F0A5FBDEE7F4
:102D5000244802E001F0EAF8B0B3626A1F4B33F88E
:102D60001230B0FBF3F0636800EB5300B0FBF3F0FC
:102D700080B2A0F110024FF6EF739A4226D8236872
:102D8000D86000200123A4F86A30A4F8683000233A
:102D900023676367BDE8F08100F07EFBDCE74FF45A
:102DA0000040DAE70120EDE70020EBE70120E9E74A
:102DB0000120E7E70120E5E70120E3E70020E1E764
:102DC0000120DFE70120DDE70020DBE70120D9E774
:102DD000F369FFCF00800040003801405C4A0008E2
:102DE000FFFC0F000024F400836A13F0010F06D0EB
:102DF0000268536823F40033C16A0B435360836A4B
:102E000013F0020F06D00268536823F48033016B7D
:102E10000B435360836A13F0040F06D002685368B3
:102E200023F48023416B0B435360836A13F0080F34
:102E300006D00268536823F40043816B0B43536050
:102E4000836A13F0100F06D00268936823F480534E
:102E5000C16B0B439360836A13F0200F06D00268A6
:102E6000936823F40053016C0B439360836A13F05F
:102E7000400F0AD00268536823F48013416C0B435F
:102E80005360436CB3F5801F0BD0836A13F0800F3F
:102E900006D00268536823F40023C16C0B435360CF
:102EA00070470268536823F4C003816C0B4353607E
:102EB000EBE72DE9F84305460F4616469946DDF83F
:102EC00020802C68E46937EA04030CBF0124002445
:102ED000B44257D1B8F1FF3FF3D001F01DFCA0EB95
:102EE000090040452FD8B8F1000F2CD02B681A6884
:102EF00012F0040FE5D0DA6912F4006FE1D04FF45C
:102F000000621A622A6852E8003F23F4D07342E854
:102F100000310029F6D12A6802F1080353E8003F86
:102F200023F00103083242E800310029F3D12023C5
:102F3000C5F88430C5F88830C5F88C30002385F892
:102F4000803003201FE02A6852E8003F23F4D0734A
:102F500042E800310029F6D12A6802F1080353E85B
:102F6000003F23F00103083242E800310029F3D189
:102F70002023C5F88430C5F88830002385F88030D8
:102F8000032000E00020BDE8F8832DE9F04182B085
:102F90001E46D0F88430202B58D104460D4690466A
:102FA000002957D0002A57D090F88030012B55D0F7
:102FB000012380F880300023C0F88C302123C0F832
:102FC000843001F0A9FB0746A4F85480A4F8568089
:102FD000A368B3F5805F05D04FF00008002384F8A4
:102FE000803014E0236913B14FF00008F6E7A846DB
:102FF0000025F3E738F8023B2268C3F30803936225
:10300000B4F8562092B2013A92B2A4F85620B4F81D
:1030100056309BB273B100963B4600228021204679
:10302000FFF747FFE0B9002DE4D015F8012B236826
:103030009A62E5E700963B46002240212046FFF7D2
:1030400038FF78B92023C4F8843000E0022002B0B1
:10305000BDE8F0810120FAE70120F8E70220F6E759
:103060000320F4E70320F2E72DE9F04383B01E4686
:10307000D0F88830202B40F0818004460D469046E1
:1030800000297FD0002A7FD090F88030012B7DD09E
:10309000012380F880300023C0F88C302222C0F851
:1030A0008820C36601F038FB0746A4F85C80A4F8CA
:1030B0005E80A368B3F5805F06D0A3B9226972B9B8
:1030C000FF22A4F8602014E0226922B940F2FF1226
:1030D000A4F860200DE0FF22A4F8602009E07F2220
:1030E000A4F8602005E0B3F1805F0DD00022A4F8C1
:1030F0006020B4F86080B3F5805F0FD04FF0000916
:10310000002384F880301EE022691AB97F22A4F8D7
:103110006020EEE73F22A4F86020EAE7236913B1BC
:103120004FF00009ECE7A9460025E9E723685B6A50
:1031300008EA030329F8023BB4F85E2092B2013A90
:1031400092B2A4F85E20B4F85E309BB28BB10096C8
:103150003B46002220212046FFF7ABFEC0B9002DE0
:10316000E4D023685A6A5FFA88F3134005F8013BFC
:10317000E2E72023C4F88830002000E0022003B0FA
:10318000BDE8F0830120FAE70120F8E70220F6E726
:103190000320F4E730B583B004460023C0F88C3038
:1031A00001F0BAFA054623681B6813F0080F0FD127
:1031B00023681B6813F0040F18D12023C4F884304F
:1031C000C4F888300020E06684F8800003B030BD89
:1031D0006FF07E430093034600224FF40011204617
:1031E000FFF767FE0028E3D00320EFE76FF07E4390
:1031F00000932B4600224FF480012046FFF759FE32
:103200000028DAD00320E1E778B310B50446D0F8FF
:1032100084300BB32423C4F884302268136823F06D
:10322000010313602046FFF7A7FC012813D0A36A0F
:10323000BBB92268536823F49043536022689368B3
:1032400023F02A0393602268136843F0010313609C
:103250002046FFF79FFF10BD80F88030FFF7B0FADF
:10326000D8E72046FFF7C0FDE3E7012070470000E4
:10327000436E2BB90123A0F86A30A0F8683070477C
:1032800030B403689A68C2F342629968490F094DE5
:103290006B5CDB00084C615C93FBF1F3A0F86A30D7
:1032A000AB5CDB00A25C93FBF2F3A0F8683030BCAF
:1032B000704700BF7C4A0008744A000890F88030CC
:1032C000012B18D0012380F880302423C0F88430EB
:1032D00003681A68196821F00101196022F0005290
:1032E0000023436601680A602022C0F8842080F829
:1032F0008030184670470220704738B590F880300B
:10330000012B1DD00446012380F880302423C0F80F
:10331000843003681D681A6822F001021A6002688E
:10332000936823F0604319439160FFF7A1FF23687E
:103330001D602023C4F88430002084F8800038BD4C
:103340000220FCE738B590F88030012B1DD00446F0
:10335000012380F880302423C0F8843003681D687E
:103360001A6822F001021A600268936823F0606311
:1033700019439160FFF77CFF23681D602023C4F888
:103380008430002084F8800038BD0220FCE7000073
:10339000F0B58DB005460F462A4C94E80F000CAEF0
:1033A00006E90F0005AB04F1100207CA83E8070025
:1033B00001AE1C3494E80F0086E80F00B7F5007FDB
:1033C0001BD00023022B22D80CAA02EB830252F856
:1033D0001C2CAA4215D20133F4E70133032B0ED87B
:1033E0000CAA02EB830252F8102CAA42F5D30CAAC5
:1033F00002EB830353F82C5C0AE00023EEE7002580
:1034000006E00CAA02EB830353F82C5C00E00025D5
:103410000D4A136823F007032B43136001F07CF976
:103420000446094B1B6803F00703AB4206D001F0CA
:1034300073F9001B0228F4D9032000E000200DB02E
:10344000F0BD00BF304900080040005810B5B0285A
:1034500016D90E4BDC6A4FF0B043D3F8083103F0B5
:103460000F030B4A52F82300B4FBF0F401F0A6F866
:1034700001460848A0FB0430800CFFF789FF10BD0F
:10348000C0F30310014B53F82040E4E7E44A00087E
:10349000844A000883DE1B434FF0B0439B6813F05F
:1034A0000C030DD14FF0B0431B6803F0F003B02BB9
:1034B00004D81B09254A52F823007047B023F8E7C7
:1034C000042B3ED0082B10D04FF0B043DB6803F044
:1034D0000303022B1FD0032B0FD14FF0B0431B6807
:1034E00013F4801F2BD11A4B16E04FF0B0431B682A
:1034F00013F4801F27D0174870474FF0B0431B6864
:1035000003F0F003B02B04D81B09104A52F8233003
:1035100002E0B023F8E70F4B4FF0B042D068C0F3A1
:10352000062000FB03F0D368C3F302130133B0FBA2
:10353000F3F0D3685B0F0133B0FBF3F07047054B3A
:10354000EAE7044870470248704700BFE44A0008B1
:103550000048E8010024F40008B5FFF79DFF4FF094
:10356000B0439B68C3F30313024A52F82330B0FB05
:10357000F3F008BD844A0008002800F07E8338B5C7
:103580000446036813F0200F7FD04FF0B0429368D9
:10359000D26802F0030213F00C031DD00C2B19D0DB
:1035A000E369002B00F09E804FF0B042136843F0B7
:1035B0000103136001F0B0F805464FF0B0431B68FB
:1035C00013F0020F52D101F0A7F8401B0228F4D9E2
:1035D00003205DE3012AE3D14FF0B0431B6813F0F1
:1035E000020F03D0E369002B00F04983606A4FF0BB
:1035F000B0431B6803F0F003B02B20D8984220D9C9
:10360000FFF724FF002840F03C83636A4FF0B0428C
:10361000116821F0F0010B431360216A536823F411
:103620007F4343EA01235360FFF796FFC44B1860C2
:10363000C44B186801F026F838B3012028E3B02302
:10364000DCE74FF0B042136823F0F003184310603A
:10365000216A536823F47F4343EA01235360606A7D
:10366000FFF7F4FE0028DFD0012011E3636A4FF07A
:10367000B042116821F0F0010B431360216A5368D6
:1036800023F47F4343EA01235360236813F0010FBF
:103690004AD04FF0B042936803F00C03D26802F0B6
:1036A0000302082B36D00C2B32D06368B3F5803F71
:1036B00063D04FF0B042136823F480331360636823
:1036C000002B61D001F028F805464FF0B0431B688D
:1036D00013F4003F28D101F01FF8401B6428F4D9EF
:1036E0000320D5E24FF0B042136823F001031360CA
:1036F00001F012F805464FF0B0431B6813F0020FBB
:10370000C3D001F009F8401B0228F4D90320BFE21E
:10371000032ACAD14FF0B0431B6813F4003F03D013
:103720006368002B00F0AF82236813F0020F50D0C3
:103730004FF0B042936803F00C03D26802F003022A
:10374000042B33D00C2B2FD0E368002B77D04FF015
:10375000B042136843F48073136000F0DDFF054648
:103760004FF0B0431B6813F4806F5ED100F0D4FFBC
:10377000401B0228F4D903208AE24FF0B0421368BC
:1037800043F4803313609AE700F0C6FF05464FF01C
:10379000B0431B6813F4003FC6D000F0BDFF401BD0
:1037A0006428F4D9032073E2022ACDD14FF0B0434C
:1037B0001B6813F4806F03D0E368002B00F0658270
:1037C00021694FF0B042536823F0FE4343EA01639E
:1037D0005360236813F0180F00F0E8806269002A34
:1037E00000F0B28013F0100F7AD04FF0B043D3F84E
:1037F000943013F0020F38D14FF0B042D2F8943029
:1038000043F00103C2F8943000F086FF05464FF004
:10381000B043D3F8943013F0020F26D100F07CFFB0
:10382000401B0228F3D9032032E221694FF0B04255
:10383000536823F0FE4343EA01635360C9E74FF046
:10384000B042136823F48073136000F065FF0546EF
:103850004FF0B0431B6813F4806FBAD000F05CFFE8
:10386000401B0228F4D9032012E24FF0B042D2F8F4
:10387000943043F00403C2F8943000F04DFF054645
:103880004FF0B043D3F8943013F0080F06D100F096
:1038900043FF401B0328F3D90320F9E1A1694FF04E
:1038A000B042D2F8943023F4706343EA0123C2F8A3
:1038B0009430D2F8943023F00103C2F8943000F031
:1038C0002BFF05464FF0B043D3F8943013F0020FAE
:1038D0006CD000F021FF401B0228F3D90320D7E170
:1038E0004FF0B042D2F8943043F00103C2F8943064
:1038F00000F012FF05464FF0B043D3F8943013F0B8
:10390000020F06D100F008FF401B0228F3D9032064
:10391000BEE14FF0B042D2F8943023F00403C2F875
:1039200094304FF0B043D3F8943013F0080F3DD0EB
:1039300000F0F2FE401B0328F3D90320A8E100BFEA
:1039400074000020700000204FF0B042D2F8943094
:1039500023F00403C2F8943000F0DEFE05464FF079
:10396000B043D3F8943013F0080F18D14FF0B042A1
:10397000D2F8943023F00103C2F8943000F0CCFE6A
:1039800005464FF0B043D3F8943013F0020F0DD03A
:1039900000F0C2FE401B0228F3D9032078E100F0BA
:1039A000BBFE401B0328DAD9032071E1236813F022
:1039B000040F68D0B94B1B6813F4807F27D0A3682D
:1039C000012B35D0052B3CD04FF0B043D3F89020DD
:1039D00022F00102C3F89020D3F8902022F00402D4
:1039E000C3F89020A368DBB300F096FE05464FF0C5
:1039F000B043D3F8903013F0020F44D100F08CFEA6
:103A0000401B41F288339842F1D9032040E100F095
:103A1000CDFD00F081FE0546A04B1B6813F4807FAE
:103A2000CDD100F079FE401B0228F5D903202FE10B
:103A30004FF0B042D2F8903043F00103C2F890301A
:103A4000D0E74FF0B043D3F8902042F00402C3F81F
:103A50009020D3F8902042F00102C3F89020C1E7F3
:103A600000F05AFE05464FF0B043D3F8903013F003
:103A7000020F08D000F050FE401B41F288339842FC
:103A8000F1D9032004E1236813F0400F33D0A36A77
:103A9000C3B14FF0B042D2F8983043F00103C2F8FE
:103AA000983000F039FE05464FF0B043D3F8983017
:103AB00013F0020F1FD100F02FFE401B0228F3D994
:103AC0000320E5E04FF0B042D2F8983023F0010334
:103AD000C2F8983000F020FE05464FF0B043D3F80E
:103AE000983013F0020F06D000F016FE401B02289B
:103AF000F3D90320CCE0E36A002B00F0C8804FF03C
:103B0000B042916801F00C01D268022B23D00C293D
:103B100000F0C1804FF0B0431A6822F080721A6042
:103B2000DA6822F00302DA60DA6822F0885222F4BE
:103B30008032DA6000F0F0FD04464FF0B0431B68BD
:103B400013F0007F00F0978000F0E6FD001B0228D4
:103B5000F3D903209CE002F00303206B83420AD0D8
:103B60000C2900F096804FF0B0431B6813F0806F73
:103B700022D001208CE002F07003606B8342EFD111
:103B8000C2F30623A06B8342EAD102F47813E06B00
:103B90008342E5D102F06063206C8342E0D102F001
:103BA0006042636C9A42DBD14FF0B0431B6813F064
:103BB000007F44D000206BE04FF0B042136823F048
:103BC0008073136000F0A8FD05464FF0B0431B68FA
:103BD00013F0007F06D000F09FFD401B0228F4D9AF
:103BE000032055E04FF0B042D3682D491940236BB4
:103BF000606B0343A06B43EA0023E06B0343206C3C
:103C00000343606C03430B43D360136843F080733A
:103C10001360D36843F08053D36000F07DFD044609
:103C20004FF0B0431B6813F0007F06D100F074FD25
:103C3000001B0228F4D903202AE0002028E04FF0DE
:103C4000B0431A6842F080721A60DA6842F080521B
:103C5000DA6000F061FD04464FF0B0431B6813F0DA
:103C6000007F06D100F058FD031B022BF4D903207E
:103C70000EE000200CE000200AE001207047012047
:103C800006E0012004E0012002E0012000E0002025
:103C900038BD0120FCE70120FAE700BF000400580E
:103CA0008C80C111002800F0278170B50C460546B4
:103CB000934B1B6803F007038B422DD32B6813F043
:103CC000020F3FD12B6813F0200F53D12B6813F054
:103CD000400F6AD12B6813F0040F40F083802B68EB
:103CE00013F0080F40F097802B6813F0010F00F0DD
:103CF000DE806B68022B00F0A880032B00F0AD8003
:103D0000002B40F0B2804FF0B042126812F0020F68
:103D100040F0B1800120EEE0794A136823F00703F8
:103D20000B43136000F0F8FC0646754B1B6803F06C
:103D30000703A342C2D000F0EFFC801B0228F4D995
:103D40000320D8E0AB684FF0B0418A6822F0F0025F
:103D500013438B6000F0E0FC06464FF0B0439B68D5
:103D600013F4803FAED100F0D7FC801B0228F4D9B9
:103D70000320C0E06B694FF0B041D1F8082122F078
:103D8000F0021343C1F8083100F0C6FC06464FF0BC
:103D9000B043D3F8083113F4003F97D100F0BCFCD6
:103DA000801B0228F3D90320A5E0A9694FF0B04297
:103DB000D2F8083123F00F0343EA1113C2F8083197
:103DC00000F0AAFC06464FF0B043D3F8083113F4D4
:103DD000803F7FF47FAF00F09FFC801B0228F2D968
:103DE000032088E0EB684FF0B0418A6822F4E0627B
:103DF00013438B6000F090FC06464FF0B0439B6885
:103E000013F4003F7FF46BAF00F086FC801B0228A8
:103E1000F3D903206FE029694FF0B042936823F48F
:103E2000605343EAC103936000F076FC06464FF00E
:103E3000B0439B6813F4802F7FF456AF00F06CFC06
:103E4000801B0228F3D9032055E04FF0B0421268DE
:103E500012F4003F0FD101204DE04FF0B042126844
:103E600012F0007F07D1012045E04FF0B042126808
:103E700012F4806F42D04FF0B0418A6822F0030202
:103E800013438B6000F048FC06464FF0B0439B683C
:103E900003F00C036A68B3EB820F08D000F03CFC1F
:103EA000801B41F288339842EFD9032023E0144B62
:103EB0001B6803F00703A34215D9114A136823F0C6
:103EC00007032343136000F027FC05460C4B1B68D7
:103ED00003F00703A34206D000F01EFC401B02289B
:103EE000F4D9032007E0FFF737FB064B186000F01A
:103EF00019FC00F0C7FB70BD012070470120FAE7F4
:103F0000004000587400002008B5FFF725FB4FF073
:103F1000B0439B68C3F30223034A52F8233003F0F3
:103F20001F03D84008BD00BFC44A000808B5FFF70A
:103F300013FB4FF0B0439B68C3F3C223034A52F80C
:103F4000233003F01F03D84008BD00BFC44A000857
:103F500070B505464FF0B042136823F080631360DC
:103F600000F0DAFB04464FF0B0431B6813F0006F1B
:103F700006D000F0D1FB001B0228F4D9032400E096
:103F800000240CB1204670BD4FF0B0431A6922F4F2
:103F9000FE42296842EA01221A611A6922F4781263
:103FA00069680A431A611A6842F080621A6000F078
:103FB000B3FB06464FF0B0431B6813F0006F05D10A
:103FC00000F0AAFB801B0228F4D90324002CD9D1CD
:103FD0004FF0B042136929690B431361D2E770B502
:103FE00005464FF0B042136823F08063136000F081
:103FF00093FB04464FF0B0431B6813F0006F06D0EC
:1040000000F08AFB001B0228F4D9032400E00024FE
:104010000CB1204670BD4FF0B0431A6922F4FE4245
:10402000296842EA01221A611A6922F06062A968CD
:104030000A431A611A6842F080621A6000F06CFB51
:1040400006464FF0B0431B6813F0006F05D100F037
:1040500063FB801B0228F4D90324002CD9D14FF034
:10406000B042136929690B431361D2E770B5054665
:104070004FF0B042136823F08063136000F04CFBF4
:1040800004464FF0B0431B6813F0006F06D000F0F9
:1040900043FB001B0228F4D9032400E000240CB1E8
:1040A000204670BD4FF0B0431A6922F4FE422968E1
:1040B00042EA01221A611A6922F06042E9680A4361
:1040C0001A611A6842F080621A6000F025FB064609
:1040D0004FF0B0431B6813F0006F05D100F01CFBDC
:1040E000801B0228F4D90324002CD9D14FF0B04210
:1040F000136929690B431361D2E770B5044603685D
:1041000013F0400F2FD0036BB3F5800F21D00AD8E6
:1041100033B90430FFF71CFF064658B1054624E0CA
:1041200001252E4621E0B3F5000F1AD0B3F5400F5C
:104130000CD10026236B4FF0B041D1F8882022F437
:1041400040021343C1F8883000250EE001252E46B9
:104150000BE04FF0B042D36843F48033D3600026C5
:10416000E8E70026E6E700252E46236813F4006FF3
:104170000AD04FF0B043D3F8905005F44075236C4B
:10418000AB4240F0D5803546236813F0010F09D0CB
:10419000A3694FF0B041D1F8882022F00302134305
:1041A000C1F88830236813F0020F09D0E3694FF09B
:1041B000B041D1F8882022F440621343C1F888301E
:1041C000236813F0100F0CD0A06A4FF0B041D1F863
:1041D0008830020C120423EA020343EA0043C1F8C8
:1041E0008830236813F0200F0CD0E06A4FF0B04104
:1041F000D1F88830020C120423EA020343EA004398
:10420000C1F88830236813F0040F0FD0236A4FF0F1
:10421000B040D0F88820190901F47F2122EA010278
:104220001B0103F47F231343C0F88830236813F085
:10423000080F0FD0636A4FF0B040D0F888201909FA
:1042400001F47F2122EA01021B0103F47F231343BF
:10425000C0F88830236813F4807F13D0636B4FF06D
:10426000B041D1F8882022F040621343C1F8883071
:10427000636BB3F1006F00F09C80636BB3F1806FF0
:1042800000F09C80236813F4007F17D0A36BB3F178
:10429000804F05D0B3F1004F02D0002B40F0968044
:1042A0004FF0B041D1F8882022F040421343C1F8CA
:1042B0008830A36BB3F1C05F00F09A80236813F4D9
:1042C000806F13D0E36B4FF0B041D1F8882022F01B
:1042D00040521343C1F88830E36BB3F1005F00F044
:1042E0008E80E36BB3F1805F00F08E80236813F45F
:1042F000805F09D0636C4FF0B041D1F8942022F474
:1043000040421343C1F89430236813F4005F0DD08A
:10431000E26C4FF0B043596A21F030010A435A620F
:10432000A26C596A21F003010A435A62284670BD03
:1043300000F03CF95DB9236C4FF0B041D1F890200A
:1043400022F440721343C1F8903035461CE74FF019
:10435000B043D3F89020D3F8901041F48031C3F8E3
:104360009010D3F8901021F48031C3F8901022F40B
:104370004072216C0A43C3F89020D3F8903013F0B8
:10438000010F12D000F0C8F905464FF0B043D3F842
:10439000903013F0020F0AD100F0BEF9401B41F239
:1043A00088339842F1D90325EEE63546ECE63546EA
:1043B000EAE6CB6843F08073CB605EE7201DFFF731
:1043C0000EFE00283FF45EAF05465BE723F0805306
:1043D0004FF0B042D2F8881021F04041C2F8881066
:1043E000D2F8881021F040610B43C2F8883060E7B2
:1043F0004FF0B042D36843F08073D3605EE7CB6880
:1044000043F48033CB606CE7201DFFF72FFE0028BC
:104410003FF46CAF054669E7F0B400235FE08668BF
:104420005F000325BD4026EA0506CD68BD40354343
:104430008560466826EA04064D68C5F300149C4072
:104440003443446059E0DD08083550F8257003F026
:104450000704A6000F24B44027EA04070C69B440FF
:104460003C4340F825405CE0042400E00024B440D4
:104470003C430235474E46F82540474C2568D44317
:1044800025EA02064F6817F4801F01D042EA0506AC
:10449000414D2E606D6804EA05064F6817F4001F51
:1044A00001D042EA05063C4D6E60D5F8805004EA22
:1044B00005064F6817F4803F01D042EA0506364DE5
:1044C000C5F88060D5F884502C404E6816F4003F43
:1044D00001D042EA0504304AC2F8844001330A6838
:1044E00032FA03F454D001249C402240F6D04D68A7
:1044F00005F00305013D012D91D94C6804F003043A
:10450000032C09D0C5685E000324B44025EA0405E5
:104510008C68B4402C43C4604C6804F00304022C43
:1045200091D005685E000324B44025EA04054C6878
:1045300004F00304B4402C4304604C6814F4403F7E
:10454000CCD09D08AE1C134C54F8267003F0030425
:10455000A6000F24B44027EA0407B0F1904F85D09D
:104560000E4CA0420ED004F58064A0420CD004F59D
:104570008064A0420AD004F58064A0423FF474AF86
:10458000072474E7012472E7022470E703246EE72E
:10459000F0BC7047000001400008005800040048CB
:1045A0000AB181617047816270470000024A136856
:1045B00043F480731360704700040058024B18687E
:1045C00000F4C060704700BF00040058074AD36879
:1045D00023F4E0631B041B0C000200F4E0600343BF
:1045E00043F0BF6343F40033D360704700ED00E055
:1045F00030B4174BDB68C3F30223C3F10704042C68
:1046000028BF04241D1D062D18D9033B4FF0FF358C
:1046100005FA04F421EA0401994005FA03F322EAB9
:104620000303194300280BDB0901C9B200F1604004
:1046300000F5614080F8001330BC70470023E5E7C7
:1046400000F00F000901C9B2024B1954F4E700BF92
:1046500000ED00E014ED00E00138B0F1807F0AD2F7
:10466000064B5860064AF02182F82310002098601B
:1046700007221A6070470120704700BF10E000E079
:1046800000ED00E0114B1B780BB90120704710B50D
:104690000446FEF761FF0D4B1A784FF47A73B3FBB3
:1046A000F2F3B0FBF3F0FFF7D7FF68B90F2C01D995
:1046B00001200AE0002221464FF0FF30FFF798FF6B
:1046C000034B1C60002000E0012010BD6C000020A6
:1046D0007000002010B5094A136843F4807313601A
:1046E0000320FFF773FF0020FFF7CCFF10B1012478
:1046F000204610BD0446FEF7E7F8F9E700400058F1
:10470000034B1B78034A11680B441360704700BFCA
:104710006C000020C0020020014B1868704700BFE9
:10472000C0020020014B1868704700BF70000020D5
:10473000164AD2F8883043F47003C2F888304FF03C
:10474000B0431A6842F001021A604FF4E0229A6006
:104750001968A2F1A262A2F205120A401A60D3F807
:10476000942022F00502C3F89420D3F8982022F078
:104770000102C3F89820064ADA601A611A6822F426
:1047800080221A6000229A61704700BF00ED00E0AD
:104790000010042200B583B001904FF6FF73012290
:1047A00001A90348FEF7F1FB019803B05DF804FB93
:1047B0003002002070B50C4616460025B54205DAD9
:1047C00014F8010BFFF7E6FF0135F7E7304670BD3F
:1047D00010B582B00C46FF280ED00D4B03EBC00085
:1047E00003C802AB03E903002246BDF80410009899
:1047F000FFF7D6FE02B010BD0020FFF7E9FF21460B
:104800000120FFF7E5FF21460220FFF7E1FFF1E776
:104810007800002000B589B0002304930593069327
:10482000079301930293039314484FF08042026070
:10483000436083604FF0FF32C26003618361FEF723
:10484000ABF890B94FF48053049304A90B48FEF7DA
:10485000DFF868B900230193039301A90748FEF725
:1048600057F940B909B05DF804FBFDF763FDE9E7CE
:10487000FDF760FDEEE7FDF75DFDF3E7C402002004
:104880000368B3F1804F00D0704782B04FF0B0435F
:104890009A6D42F001029A659B6D03F0010301934A
:1048A000019B02B07047D458C4500433C4188C42E2
:1048B000F9D37047036004308842FBD3704700008F
:1048C0000C488546FFF734FF0B480C490C4A00237F
:1048D000FFF7ECFF0B480C490023FFF7EDFF0B48F7
:1048E0000B490023FFF7E8FFFBF76EFCFDF77AFDAD
:1048F000FEE70000000003200800002090000020D8
:10490000704B0008900000201003002000000320DE
:1049100000000320FEE70000F8B500BFF8BC08BCAB
:104920009E467047F8B500BFF8BC08BC9E4670476D
:1049300012000000240000003600000040000000CB
:10494000060000000C000000100000000000000045
:104950000100000002000000030000000C00002025
:104960000000000000000000000000000000000047
:104970000000000000000000000000000000000037
:104980000000000000000000000000000000000027
:104990000000000000000000000000000000000017
:1049A0000000000000000000000000000000000007
:1049B00000000000000000000000000000000000F7
:1049C0007265636569766520636F6D6D616E643ACB
:1049D0002025730A0D0000007365745F6C65640A1E
:1049E000000000007365745F6C656420636F6D6D1B
:1049F000616E640A0D0000006C6564202573000080
:104A00007374617475732025730A00007265640AFB
:104A100000000000737472636D70202025640A002A
:104A20006566746173612072656400003000000087
:104A3000626C75650A0000006566746173612062CE
:104A40006C756500677265656E0A00006566746165
:104A5000736120677265656E00000000010002004E
:104A60000400060008000A000C00100020004000AE
:104A70008000000108040204080101010101010392
:104A80000701000001000000030000000500000015
:104A90000100000001000000060000000A00000004
:104AA00020000000020000000400000008000000D8
:104AB0001000000040000000800000000001000025
:104AC00000020000000000000000000000000000E4
:104AD00000000000010000000200000003000000D0
:104AE00004000000A0860100400D0300801A0600AB
:104AF00000350C0040420F0080841E0000093D007C
:104B000000127A000024F40000366E010048E8012B
:104B1000006CDC020000000000000000000000004B
:104B200000000000232D302B20000000686C4C009A
:104B300065666745464700003031323334353637D5
:104B40003839414243444546000000003031323399
:104B500034353637383961626364656600000000B9
:084B600000D5FF7F01000000F9
:044B6800A901000897
:044B6C0081010008BB
:104B70000C00002000000000A04900088049000847
:104B80006049000800000000000000000000000074
:104B90000000000000000000000000000000000015
:104BA0000000000000000000000000000000000005
:104BB00000000000000000000000000000000000F5
:104BC00000000000000000000000000000000000E5
:104BD00000000000010000001000000000093D007E
:104BE000000400480200000000040048010000002A
:084BF000000400482000000051
:04000005080048C1E6
:00000001FF
